{
  "contractName": "NFTContractUpdated",
  "abi": [
    {
      "inputs": [],
      "stateMutability": "nonpayable",
      "type": "constructor"
    },
    {
      "inputs": [
        {
          "internalType": "address",
          "name": "sender",
          "type": "address"
        },
        {
          "internalType": "uint256",
          "name": "balance",
          "type": "uint256"
        },
        {
          "internalType": "uint256",
          "name": "needed",
          "type": "uint256"
        },
        {
          "internalType": "uint256",
          "name": "tokenId",
          "type": "uint256"
        }
      ],
      "name": "ERC1155InsufficientBalance",
      "type": "error"
    },
    {
      "inputs": [
        {
          "internalType": "address",
          "name": "approver",
          "type": "address"
        }
      ],
      "name": "ERC1155InvalidApprover",
      "type": "error"
    },
    {
      "inputs": [
        {
          "internalType": "uint256",
          "name": "idsLength",
          "type": "uint256"
        },
        {
          "internalType": "uint256",
          "name": "valuesLength",
          "type": "uint256"
        }
      ],
      "name": "ERC1155InvalidArrayLength",
      "type": "error"
    },
    {
      "inputs": [
        {
          "internalType": "address",
          "name": "operator",
          "type": "address"
        }
      ],
      "name": "ERC1155InvalidOperator",
      "type": "error"
    },
    {
      "inputs": [
        {
          "internalType": "address",
          "name": "receiver",
          "type": "address"
        }
      ],
      "name": "ERC1155InvalidReceiver",
      "type": "error"
    },
    {
      "inputs": [
        {
          "internalType": "address",
          "name": "sender",
          "type": "address"
        }
      ],
      "name": "ERC1155InvalidSender",
      "type": "error"
    },
    {
      "inputs": [
        {
          "internalType": "address",
          "name": "operator",
          "type": "address"
        },
        {
          "internalType": "address",
          "name": "owner",
          "type": "address"
        }
      ],
      "name": "ERC1155MissingApprovalForAll",
      "type": "error"
    },
    {
      "anonymous": false,
      "inputs": [
        {
          "indexed": true,
          "internalType": "address",
          "name": "account",
          "type": "address"
        },
        {
          "indexed": true,
          "internalType": "address",
          "name": "operator",
          "type": "address"
        },
        {
          "indexed": false,
          "internalType": "bool",
          "name": "approved",
          "type": "bool"
        }
      ],
      "name": "ApprovalForAll",
      "type": "event"
    },
    {
      "anonymous": false,
      "inputs": [
        {
          "indexed": true,
          "internalType": "address",
          "name": "operator",
          "type": "address"
        },
        {
          "indexed": true,
          "internalType": "address",
          "name": "from",
          "type": "address"
        },
        {
          "indexed": true,
          "internalType": "address",
          "name": "to",
          "type": "address"
        },
        {
          "indexed": false,
          "internalType": "uint256[]",
          "name": "ids",
          "type": "uint256[]"
        },
        {
          "indexed": false,
          "internalType": "uint256[]",
          "name": "values",
          "type": "uint256[]"
        }
      ],
      "name": "TransferBatch",
      "type": "event"
    },
    {
      "anonymous": false,
      "inputs": [
        {
          "indexed": true,
          "internalType": "address",
          "name": "operator",
          "type": "address"
        },
        {
          "indexed": true,
          "internalType": "address",
          "name": "from",
          "type": "address"
        },
        {
          "indexed": true,
          "internalType": "address",
          "name": "to",
          "type": "address"
        },
        {
          "indexed": false,
          "internalType": "uint256",
          "name": "id",
          "type": "uint256"
        },
        {
          "indexed": false,
          "internalType": "uint256",
          "name": "value",
          "type": "uint256"
        }
      ],
      "name": "TransferSingle",
      "type": "event"
    },
    {
      "anonymous": false,
      "inputs": [
        {
          "indexed": false,
          "internalType": "string",
          "name": "value",
          "type": "string"
        },
        {
          "indexed": true,
          "internalType": "uint256",
          "name": "id",
          "type": "uint256"
        }
      ],
      "name": "URI",
      "type": "event"
    },
    {
      "inputs": [
        {
          "internalType": "address",
          "name": "account",
          "type": "address"
        },
        {
          "internalType": "uint256",
          "name": "id",
          "type": "uint256"
        }
      ],
      "name": "balanceOf",
      "outputs": [
        {
          "internalType": "uint256",
          "name": "",
          "type": "uint256"
        }
      ],
      "stateMutability": "view",
      "type": "function",
      "constant": true
    },
    {
      "inputs": [
        {
          "internalType": "address[]",
          "name": "accounts",
          "type": "address[]"
        },
        {
          "internalType": "uint256[]",
          "name": "ids",
          "type": "uint256[]"
        }
      ],
      "name": "balanceOfBatch",
      "outputs": [
        {
          "internalType": "uint256[]",
          "name": "",
          "type": "uint256[]"
        }
      ],
      "stateMutability": "view",
      "type": "function",
      "constant": true
    },
    {
      "inputs": [
        {
          "internalType": "uint256",
          "name": "",
          "type": "uint256"
        },
        {
          "internalType": "address",
          "name": "",
          "type": "address"
        }
      ],
      "name": "balances",
      "outputs": [
        {
          "internalType": "uint256",
          "name": "",
          "type": "uint256"
        }
      ],
      "stateMutability": "view",
      "type": "function",
      "constant": true
    },
    {
      "inputs": [
        {
          "internalType": "address",
          "name": "account",
          "type": "address"
        },
        {
          "internalType": "address",
          "name": "operator",
          "type": "address"
        }
      ],
      "name": "isApprovedForAll",
      "outputs": [
        {
          "internalType": "bool",
          "name": "",
          "type": "bool"
        }
      ],
      "stateMutability": "view",
      "type": "function",
      "constant": true
    },
    {
      "inputs": [
        {
          "internalType": "address",
          "name": "from",
          "type": "address"
        },
        {
          "internalType": "address",
          "name": "to",
          "type": "address"
        },
        {
          "internalType": "uint256[]",
          "name": "ids",
          "type": "uint256[]"
        },
        {
          "internalType": "uint256[]",
          "name": "values",
          "type": "uint256[]"
        },
        {
          "internalType": "bytes",
          "name": "data",
          "type": "bytes"
        }
      ],
      "name": "safeBatchTransferFrom",
      "outputs": [],
      "stateMutability": "nonpayable",
      "type": "function"
    },
    {
      "inputs": [
        {
          "internalType": "address",
          "name": "from",
          "type": "address"
        },
        {
          "internalType": "address",
          "name": "to",
          "type": "address"
        },
        {
          "internalType": "uint256",
          "name": "id",
          "type": "uint256"
        },
        {
          "internalType": "uint256",
          "name": "value",
          "type": "uint256"
        },
        {
          "internalType": "bytes",
          "name": "data",
          "type": "bytes"
        }
      ],
      "name": "safeTransferFrom",
      "outputs": [],
      "stateMutability": "nonpayable",
      "type": "function"
    },
    {
      "inputs": [
        {
          "internalType": "address",
          "name": "operator",
          "type": "address"
        },
        {
          "internalType": "bool",
          "name": "approved",
          "type": "bool"
        }
      ],
      "name": "setApprovalForAll",
      "outputs": [],
      "stateMutability": "nonpayable",
      "type": "function"
    },
    {
      "inputs": [
        {
          "internalType": "bytes4",
          "name": "interfaceId",
          "type": "bytes4"
        }
      ],
      "name": "supportsInterface",
      "outputs": [
        {
          "internalType": "bool",
          "name": "",
          "type": "bool"
        }
      ],
      "stateMutability": "view",
      "type": "function",
      "constant": true
    },
    {
      "inputs": [
        {
          "internalType": "uint256",
          "name": "",
          "type": "uint256"
        }
      ],
      "name": "uri",
      "outputs": [
        {
          "internalType": "string",
          "name": "",
          "type": "string"
        }
      ],
      "stateMutability": "view",
      "type": "function",
      "constant": true
    },
    {
      "inputs": [
        {
          "internalType": "string",
          "name": "_collectionId",
          "type": "string"
        }
      ],
      "name": "createCollection",
      "outputs": [],
      "stateMutability": "nonpayable",
      "type": "function"
    },
    {
      "inputs": [
        {
          "internalType": "string",
          "name": "_cid",
          "type": "string"
        },
        {
          "internalType": "string",
          "name": "_name",
          "type": "string"
        },
        {
          "internalType": "string",
          "name": "_description",
          "type": "string"
        },
        {
          "internalType": "string",
          "name": "_filetype",
          "type": "string"
        },
        {
          "internalType": "uint256",
          "name": "_amount",
          "type": "uint256"
        },
        {
          "internalType": "string",
          "name": "_collectionId",
          "type": "string"
        },
        {
          "internalType": "string",
          "name": "_dateCreated",
          "type": "string"
        },
        {
          "internalType": "string",
          "name": "_value",
          "type": "string"
        }
      ],
      "name": "createNFT",
      "outputs": [
        {
          "internalType": "uint256",
          "name": "tokenId",
          "type": "uint256"
        }
      ],
      "stateMutability": "nonpayable",
      "type": "function"
    },
    {
      "inputs": [
        {
          "internalType": "uint256",
          "name": "_id",
          "type": "uint256"
        },
        {
          "internalType": "address",
          "name": "_to",
          "type": "address"
        },
        {
          "internalType": "uint256",
          "name": "_amount",
          "type": "uint256"
        },
        {
          "internalType": "string",
          "name": "_date",
          "type": "string"
        }
      ],
      "name": "transferNFT",
      "outputs": [],
      "stateMutability": "nonpayable",
      "type": "function"
    },
    {
      "inputs": [
        {
          "internalType": "uint256",
          "name": "_id",
          "type": "uint256"
        }
      ],
      "name": "getNFT",
      "outputs": [
        {
          "internalType": "address[]",
          "name": "owners",
          "type": "address[]"
        },
        {
          "internalType": "address",
          "name": "creator",
          "type": "address"
        },
        {
          "internalType": "string",
          "name": "collectionId",
          "type": "string"
        },
        {
          "internalType": "string",
          "name": "name",
          "type": "string"
        },
        {
          "internalType": "string",
          "name": "description",
          "type": "string"
        },
        {
          "internalType": "uint256[]",
          "name": "transaction",
          "type": "uint256[]"
        },
        {
          "internalType": "string",
          "name": "cid",
          "type": "string"
        },
        {
          "internalType": "string",
          "name": "dateCreated",
          "type": "string"
        },
        {
          "internalType": "uint256",
          "name": "amount",
          "type": "uint256"
        },
        {
          "internalType": "string",
          "name": "value",
          "type": "string"
        }
      ],
      "stateMutability": "view",
      "type": "function",
      "constant": true
    },
    {
      "inputs": [
        {
          "internalType": "string",
          "name": "_collectionId",
          "type": "string"
        }
      ],
      "name": "getCollection",
      "outputs": [
        {
          "internalType": "address",
          "name": "owner",
          "type": "address"
        },
        {
          "internalType": "uint256[]",
          "name": "nft",
          "type": "uint256[]"
        }
      ],
      "stateMutability": "view",
      "type": "function",
      "constant": true
    },
    {
      "inputs": [
        {
          "internalType": "uint256",
          "name": "_transactionId",
          "type": "uint256"
        }
      ],
      "name": "getTransaction",
      "outputs": [
        {
          "internalType": "address",
          "name": "sender",
          "type": "address"
        },
        {
          "internalType": "address",
          "name": "receiver",
          "type": "address"
        },
        {
          "internalType": "string",
          "name": "date",
          "type": "string"
        },
        {
          "internalType": "uint256",
          "name": "supply",
          "type": "uint256"
        }
      ],
      "stateMutability": "view",
      "type": "function",
      "constant": true
    },
    {
      "inputs": [
        {
          "internalType": "address",
          "name": "_owner",
          "type": "address"
        },
        {
          "internalType": "uint256",
          "name": "_id",
          "type": "uint256"
        }
      ],
      "name": "getBalance",
      "outputs": [
        {
          "internalType": "uint256",
          "name": "",
          "type": "uint256"
        }
      ],
      "stateMutability": "view",
      "type": "function",
      "constant": true
    },
    {
      "inputs": [
        {
          "internalType": "uint256",
          "name": "_id",
          "type": "uint256"
        }
      ],
      "name": "getNumberOfOwners",
      "outputs": [
        {
          "internalType": "uint256",
          "name": "",
          "type": "uint256"
        }
      ],
      "stateMutability": "view",
      "type": "function",
      "constant": true
    },
    {
      "inputs": [
        {
          "internalType": "address",
          "name": "_owner",
          "type": "address"
        }
      ],
      "name": "getNFTsByOwner",
      "outputs": [
        {
          "internalType": "uint256[]",
          "name": "",
          "type": "uint256[]"
        }
      ],
      "stateMutability": "view",
      "type": "function",
      "constant": true
    },
    {
      "inputs": [
        {
          "internalType": "uint256",
          "name": "_id",
          "type": "uint256"
        },
        {
          "internalType": "string",
          "name": "_cid",
          "type": "string"
        }
      ],
      "name": "updateCID",
      "outputs": [],
      "stateMutability": "nonpayable",
      "type": "function"
    }
  ],
  "bytecode": "0x60806040523480156200001157600080fd5b50604051806060016040528060268152602001620051b8602691396200003d816200004460201b60201c565b50620003ba565b8060029081620000559190620002d3565b5050565b600081519050919050565b7f4e487b7100000000000000000000000000000000000000000000000000000000600052604160045260246000fd5b7f4e487b7100000000000000000000000000000000000000000000000000000000600052602260045260246000fd5b60006002820490506001821680620000db57607f821691505b602082108103620000f157620000f062000093565b5b50919050565b60008190508160005260206000209050919050565b60006020601f8301049050919050565b600082821b905092915050565b6000600883026200015b7fffffffffffffffffffffffffffffffffffffffffffffffffffffffffffffffff826200011c565b6200016786836200011c565b95508019841693508086168417925050509392505050565b6000819050919050565b6000819050919050565b6000620001b4620001ae620001a8846200017f565b62000189565b6200017f565b9050919050565b6000819050919050565b620001d08362000193565b620001e8620001df82620001bb565b84845462000129565b825550505050565b600090565b620001ff620001f0565b6200020c818484620001c5565b505050565b5b81811015620002345762000228600082620001f5565b60018101905062000212565b5050565b601f82111562000283576200024d81620000f7565b62000258846200010c565b8101602085101562000268578190505b6200028062000277856200010c565b83018262000211565b50505b505050565b600082821c905092915050565b6000620002a86000198460080262000288565b1980831691505092915050565b6000620002c3838362000295565b9150826002028217905092915050565b620002de8262000059565b67ffffffffffffffff811115620002fa57620002f962000064565b5b620003068254620000c2565b6200031382828562000238565b600060209050601f8311600181146200034b576000841562000336578287015190505b620003428582620002b5565b865550620003b2565b601f1984166200035b86620000f7565b60005b8281101562000385578489015182556001820191506020850194506020810190506200035e565b86831015620003a55784890151620003a1601f89168262000295565b8355505b6001600288020188555050505b505050505050565b614dee80620003ca6000396000f3fe608060405234801561001057600080fd5b50600436106101205760003560e01c80633b535ac5116100ad578063a22cb46511610071578063a22cb46514610396578063e2afe8b3146103b2578063e985e9c5146103e2578063f242432a14610412578063feaeaf621461042e57610120565b80633b535ac5146102b15780634e1273f4146102e1578063576f7ea7146103115780635ee9d1111461034a57806377e1d95d1461036657610120565b80630ff79b33116100f45780630ff79b33146101d15780631f320331146102025780632b04e840146102325780632eb2c2d61461026257806333ea3dc81461027e57610120565b8062fdd58e1461012557806301ffc9a714610155578063059dfe13146101855780630e89341c146101a1575b600080fd5b61013f600480360381019061013a9190613648565b61044a565b60405161014c9190613697565b60405180910390f35b61016f600480360381019061016a919061370a565b6104a4565b60405161017c9190613752565b60405180910390f35b61019f600480360381019061019a91906138b3565b610586565b005b6101bb60048036038101906101b691906138fc565b610732565b6040516101c891906139a8565b60405180910390f35b6101eb60048036038101906101e691906138b3565b6107c6565b6040516101f9929190613a97565b60405180910390f35b61021c60048036038101906102179190613ac7565b610969565b6040516102299190613697565b60405180910390f35b61024c60048036038101906102479190613648565b61098e565b6040516102599190613697565b60405180910390f35b61027c60048036038101906102779190613c70565b6109e9565b005b610298600480360381019061029391906138fc565b610a91565b6040516102a89493929190613d3f565b60405180910390f35b6102cb60048036038101906102c69190613d8b565b610c2f565b6040516102d89190613697565b60405180910390f35b6102fb60048036038101906102f69190613fc8565b611319565b6040516103089190614040565b60405180910390f35b61032b600480360381019061032691906138fc565b611428565b6040516103419a99989796959493929190614120565b60405180910390f35b610364600480360381019061035f91906141f4565b611aa6565b005b610380600480360381019061037b91906138fc565b612511565b60405161038d9190613697565b60405180910390f35b6103b060048036038101906103ab91906142a3565b612534565b005b6103cc60048036038101906103c791906142e3565b61254a565b6040516103d99190614040565b60405180910390f35b6103fc60048036038101906103f79190614310565b6125e1565b6040516104099190613752565b60405180910390f35b61042c60048036038101906104279190614350565b612675565b005b610448600480360381019061044391906143e7565b61271d565b005b600080600083815260200190815260200160002060008473ffffffffffffffffffffffffffffffffffffffff1673ffffffffffffffffffffffffffffffffffffffff16815260200190815260200160002054905092915050565b60007fd9b67a26000000000000000000000000000000000000000000000000000000007bffffffffffffffffffffffffffffffffffffffffffffffffffffffff1916827bffffffffffffffffffffffffffffffffffffffffffffffffffffffff1916148061056f57507f0e89341c000000000000000000000000000000000000000000000000000000007bffffffffffffffffffffffffffffffffffffffffffffffffffffffff1916827bffffffffffffffffffffffffffffffffffffffffffffffffffffffff1916145b8061057f575061057e826127ea565b5b9050919050565b600073ffffffffffffffffffffffffffffffffffffffff166006826040516105ae919061447f565b908152602001604051809103902060000160009054906101000a900473ffffffffffffffffffffffffffffffffffffffff1673ffffffffffffffffffffffffffffffffffffffff1614610636576040517f08c379a000000000000000000000000000000000000000000000000000000000815260040161062d906144e2565b60405180910390fd5b60405180604001604052803373ffffffffffffffffffffffffffffffffffffffff168152602001600067ffffffffffffffff81111561067857610677613788565b5b6040519080825280602002602001820160405280156106a65781602001602082028036833780820191505090505b508152506006826040516106ba919061447f565b908152602001604051809103902060008201518160000160006101000a81548173ffffffffffffffffffffffffffffffffffffffff021916908373ffffffffffffffffffffffffffffffffffffffff160217905550602082015181600101908051906020019061072b9291906134ac565b5090505050565b60606002805461074190614531565b80601f016020809104026020016040519081016040528092919081815260200182805461076d90614531565b80156107ba5780601f1061078f576101008083540402835291602001916107ba565b820191906000526020600020905b81548152906001019060200180831161079d57829003601f168201915b50505050509050919050565b60006060600073ffffffffffffffffffffffffffffffffffffffff166006846040516107f2919061447f565b908152602001604051809103902060000160009054906101000a900473ffffffffffffffffffffffffffffffffffffffff1673ffffffffffffffffffffffffffffffffffffffff160361087a576040517f08c379a0000000000000000000000000000000000000000000000000000000008152600401610871906145ae565b60405180910390fd5b600060068460405161088c919061447f565b90815260200160405180910390206040518060400160405290816000820160009054906101000a900473ffffffffffffffffffffffffffffffffffffffff1673ffffffffffffffffffffffffffffffffffffffff1673ffffffffffffffffffffffffffffffffffffffff1681526020016001820180548060200260200160405190810160405280929190818152602001828054801561094a57602002820191906000526020600020905b815481526020019060010190808311610936575b5050505050815250509050806000015181602001519250925050915091565b6008602052816000526040600020602052806000526040600020600091509150505481565b60006008600083815260200190815260200160002060008473ffffffffffffffffffffffffffffffffffffffff1673ffffffffffffffffffffffffffffffffffffffff16815260200190815260200160002054905092915050565b60006109f3612854565b90508073ffffffffffffffffffffffffffffffffffffffff168673ffffffffffffffffffffffffffffffffffffffff1614158015610a385750610a3686826125e1565b155b15610a7c5780866040517fe237d922000000000000000000000000000000000000000000000000000000008152600401610a739291906145ce565b60405180910390fd5b610a89868686868661285c565b505050505050565b6000806060600080600960008781526020019081526020016000206040518060a0016040529081600082015481526020016001820160009054906101000a900473ffffffffffffffffffffffffffffffffffffffff1673ffffffffffffffffffffffffffffffffffffffff1673ffffffffffffffffffffffffffffffffffffffff1681526020016002820160009054906101000a900473ffffffffffffffffffffffffffffffffffffffff1673ffffffffffffffffffffffffffffffffffffffff1673ffffffffffffffffffffffffffffffffffffffff168152602001600382018054610b7d90614531565b80601f0160208091040260200160405190810160405280929190818152602001828054610ba990614531565b8015610bf65780601f10610bcb57610100808354040283529160200191610bf6565b820191906000526020600020905b815481529060010190602001808311610bd957829003601f168201915b50505050508152602001600482015481525050905080602001518160400151826060015183608001519450945094509450509193509193565b600080610c3c6004612954565b90506000610c4a6003612954565b9050600073ffffffffffffffffffffffffffffffffffffffff16600687604051610c74919061447f565b908152602001604051809103902060000160009054906101000a900473ffffffffffffffffffffffffffffffffffffffff1673ffffffffffffffffffffffffffffffffffffffff1603610cfc576040517f08c379a0000000000000000000000000000000000000000000000000000000008152600401610cf3906145ae565b60405180910390fd5b3373ffffffffffffffffffffffffffffffffffffffff16600687604051610d23919061447f565b908152602001604051809103902060000160009054906101000a900473ffffffffffffffffffffffffffffffffffffffff1673ffffffffffffffffffffffffffffffffffffffff1614610dab576040517f08c379a0000000000000000000000000000000000000000000000000000000008152600401610da290614643565b60405180910390fd5b6040518060a00160405280838152602001600073ffffffffffffffffffffffffffffffffffffffff1681526020013373ffffffffffffffffffffffffffffffffffffffff16815260200186815260200188815250600960008481526020019081526020016000206000820151816000015560208201518160010160006101000a81548173ffffffffffffffffffffffffffffffffffffffff021916908373ffffffffffffffffffffffffffffffffffffffff16021790555060408201518160020160006101000a81548173ffffffffffffffffffffffffffffffffffffffff021916908373ffffffffffffffffffffffffffffffffffffffff1602179055506060820151816003019081610ebf919061480f565b50608082015181600401559050506040518061018001604052808281526020018c8152602001600067ffffffffffffffff811115610f0057610eff613788565b5b604051908082528060200260200182016040528015610f2e5781602001602082028036833780820191505090505b5081526020013373ffffffffffffffffffffffffffffffffffffffff1681526020018b81526020018a8152602001888152602001868152602001898152602001878152602001600067ffffffffffffffff811115610f8f57610f8e613788565b5b604051908082528060200260200182016040528015610fbd5781602001602082028036833780820191505090505b5081526020018581525060056000838152602001908152602001600020600082015181600001556020820151816001019081610ff9919061480f565b5060408201518160020190805190602001906110169291906134f9565b5060608201518160030160006101000a81548173ffffffffffffffffffffffffffffffffffffffff021916908373ffffffffffffffffffffffffffffffffffffffff1602179055506080820151816004019081611073919061480f565b5060a0820151816005019081611089919061480f565b5060c0820151816006015560e08201518160070190816110a9919061480f565b506101008201518160080190816110c0919061480f565b506101208201518160090190816110d7919061480f565b5061014082015181600a0190805190602001906110f59291906134ac565b5061016082015181600b01908161110c919061480f565b5090505061112b33828960405180602001604052806000815250612962565b60068660405161113b919061447f565b9081526020016040518091039020600101819080600181540180825580915050600190039060005260206000200160009091909190915055600760003373ffffffffffffffffffffffffffffffffffffffff1673ffffffffffffffffffffffffffffffffffffffff168152602001908152602001600020819080600181540180825580915050600190039060005260206000200160009091909190915055866008600083815260200190815260200160002060003373ffffffffffffffffffffffffffffffffffffffff1673ffffffffffffffffffffffffffffffffffffffff16815260200190815260200160002060008282546112399190614910565b9250508190555060056000828152602001908152602001600020600201339080600181540180825580915050600190039060005260206000200160009091909190916101000a81548173ffffffffffffffffffffffffffffffffffffffff021916908373ffffffffffffffffffffffffffffffffffffffff16021790555060056000828152602001908152602001600020600a018290806001815401808255809150506001900390600052602060002001600090919091909150556112fe60046129fb565b61130860036129fb565b809250505098975050505050505050565b6060815183511461136557815183516040517f5b05999100000000000000000000000000000000000000000000000000000000815260040161135c929190614944565b60405180910390fd5b6000835167ffffffffffffffff81111561138257611381613788565b5b6040519080825280602002602001820160405280156113b05781602001602082028036833780820191505090505b50905060005b845181101561141d576113ed6113d58287612a1190919063ffffffff16565b6113e88387612a2590919063ffffffff16565b61044a565b828281518110611400576113ff61496d565b5b602002602001018181525050806114169061499c565b90506113b6565b508091505092915050565b6060600060608060608060608060006060600073ffffffffffffffffffffffffffffffffffffffff16600560008d815260200190815260200160002060030160009054906101000a900473ffffffffffffffffffffffffffffffffffffffff1673ffffffffffffffffffffffffffffffffffffffff16036114de576040517f08c379a00000000000000000000000000000000000000000000000000000000081526004016114d590614a30565b60405180910390fd5b6000600560008d8152602001908152602001600020604051806101800160405290816000820154815260200160018201805461151990614531565b80601f016020809104026020016040519081016040528092919081815260200182805461154590614531565b80156115925780601f1061156757610100808354040283529160200191611592565b820191906000526020600020905b81548152906001019060200180831161157557829003601f168201915b505050505081526020016002820180548060200260200160405190810160405280929190818152602001828054801561162057602002820191906000526020600020905b8160009054906101000a900473ffffffffffffffffffffffffffffffffffffffff1673ffffffffffffffffffffffffffffffffffffffff16815260200190600101908083116115d6575b505050505081526020016003820160009054906101000a900473ffffffffffffffffffffffffffffffffffffffff1673ffffffffffffffffffffffffffffffffffffffff1673ffffffffffffffffffffffffffffffffffffffff16815260200160048201805461168f90614531565b80601f01602080910402602001604051908101604052809291908181526020018280546116bb90614531565b80156117085780601f106116dd57610100808354040283529160200191611708565b820191906000526020600020905b8154815290600101906020018083116116eb57829003601f168201915b5050505050815260200160058201805461172190614531565b80601f016020809104026020016040519081016040528092919081815260200182805461174d90614531565b801561179a5780601f1061176f5761010080835404028352916020019161179a565b820191906000526020600020905b81548152906001019060200180831161177d57829003601f168201915b50505050508152602001600682015481526020016007820180546117bd90614531565b80601f01602080910402602001604051908101604052809291908181526020018280546117e990614531565b80156118365780601f1061180b57610100808354040283529160200191611836565b820191906000526020600020905b81548152906001019060200180831161181957829003601f168201915b5050505050815260200160088201805461184f90614531565b80601f016020809104026020016040519081016040528092919081815260200182805461187b90614531565b80156118c85780601f1061189d576101008083540402835291602001916118c8565b820191906000526020600020905b8154815290600101906020018083116118ab57829003601f168201915b505050505081526020016009820180546118e190614531565b80601f016020809104026020016040519081016040528092919081815260200182805461190d90614531565b801561195a5780601f1061192f5761010080835404028352916020019161195a565b820191906000526020600020905b81548152906001019060200180831161193d57829003601f168201915b50505050508152602001600a82018054806020026020016040519081016040528092919081815260200182805480156119b257602002820191906000526020600020905b81548152602001906001019080831161199e575b50505050508152602001600b820180546119cb90614531565b80601f01602080910402602001604051908101604052809291908181526020018280546119f790614531565b8015611a445780601f10611a1957610100808354040283529160200191611a44565b820191906000526020600020905b815481529060010190602001808311611a2757829003601f168201915b50505050508152505090508060400151816060015182610120015183608001518460a0015185610140015186602001518760e001518860c001518961016001519a509a509a509a509a509a509a509a509a509a50509193959799509193959799565b816008600086815260200190815260200160002060003373ffffffffffffffffffffffffffffffffffffffff1673ffffffffffffffffffffffffffffffffffffffff168152602001908152602001600020541015611b39576040517f08c379a0000000000000000000000000000000000000000000000000000000008152600401611b3090614a9c565b60405180910390fd5b600073ffffffffffffffffffffffffffffffffffffffff168373ffffffffffffffffffffffffffffffffffffffff1603611ba8576040517f08c379a0000000000000000000000000000000000000000000000000000000008152600401611b9f90614b08565b60405180910390fd5b600073ffffffffffffffffffffffffffffffffffffffff166005600086815260200190815260200160002060030160009054906101000a900473ffffffffffffffffffffffffffffffffffffffff1673ffffffffffffffffffffffffffffffffffffffff1603611c4d576040517f08c379a0000000000000000000000000000000000000000000000000000000008152600401611c4490614a30565b60405180910390fd5b611c693384868560405180602001604052806000815250612a39565b816008600086815260200190815260200160002060003373ffffffffffffffffffffffffffffffffffffffff1673ffffffffffffffffffffffffffffffffffffffff1681526020019081526020016000206000828254611cc99190614b28565b92505081905550816008600086815260200190815260200160002060008573ffffffffffffffffffffffffffffffffffffffff1673ffffffffffffffffffffffffffffffffffffffff1681526020019081526020016000206000828254611d309190614910565b925050819055506000805b6005600087815260200190815260200160002060020180549050811015611dfd578473ffffffffffffffffffffffffffffffffffffffff16600560008881526020019081526020016000206002018281548110611d9b57611d9a61496d565b5b9060005260206000200160009054906101000a900473ffffffffffffffffffffffffffffffffffffffff1673ffffffffffffffffffffffffffffffffffffffff1603611dea5760019150611dfd565b8080611df59061499c565b915050611d3b565b506000151581151503611ee85760056000868152602001908152602001600020600201849080600181540180825580915050600190039060005260206000200160009091909190916101000a81548173ffffffffffffffffffffffffffffffffffffffff021916908373ffffffffffffffffffffffffffffffffffffffff160217905550600760008573ffffffffffffffffffffffffffffffffffffffff1673ffffffffffffffffffffffffffffffffffffffff1681526020019081526020016000208590806001815401808255809150506001900390600052602060002001600090919091909150555b60006008600087815260200190815260200160002060003373ffffffffffffffffffffffffffffffffffffffff1673ffffffffffffffffffffffffffffffffffffffff16815260200190815260200160002054036123935760008060006001600560008a815260200190815260200160002060020180549050611f6b9190614b28565b67ffffffffffffffff811115611f8457611f83613788565b5b604051908082528060200260200182016040528015611fb25781602001602082028036833780820191505090505b509050600092505b6005600089815260200190815260200160002060020180549050831015612122573373ffffffffffffffffffffffffffffffffffffffff16600560008a8152602001908152602001600020600201848154811061201a5761201961496d565b5b9060005260206000200160009054906101000a900473ffffffffffffffffffffffffffffffffffffffff1673ffffffffffffffffffffffffffffffffffffffff161461210f576005600089815260200190815260200160002060020183815481106120885761208761496d565b5b9060005260206000200160009054906101000a900473ffffffffffffffffffffffffffffffffffffffff168183815181106120c6576120c561496d565b5b602002602001019073ffffffffffffffffffffffffffffffffffffffff16908173ffffffffffffffffffffffffffffffffffffffff1681525050818061210b9061499c565b9250505b828061211a9061499c565b935050611fba565b80600560008a8152602001908152602001600020600201908051906020019061214c9291906134f9565b5060006001600760003373ffffffffffffffffffffffffffffffffffffffff1673ffffffffffffffffffffffffffffffffffffffff1681526020019081526020016000208054905061219e9190614b28565b67ffffffffffffffff8111156121b7576121b6613788565b5b6040519080825280602002602001820160405280156121e55781602001602082028036833780820191505090505b50905060009250600093505b600760003373ffffffffffffffffffffffffffffffffffffffff1673ffffffffffffffffffffffffffffffffffffffff1681526020019081526020016000208054905084101561233a5788600760003373ffffffffffffffffffffffffffffffffffffffff1673ffffffffffffffffffffffffffffffffffffffff168152602001908152602001600020858154811061228d5761228c61496d565b5b90600052602060002001541461232757600760003373ffffffffffffffffffffffffffffffffffffffff1673ffffffffffffffffffffffffffffffffffffffff16815260200190815260200160002084815481106122ee576122ed61496d565b5b906000526020600020015481848151811061230c5761230b61496d565b5b60200260200101818152505082806123239061499c565b9350505b83806123329061499c565b9450506121f1565b80600760003373ffffffffffffffffffffffffffffffffffffffff1673ffffffffffffffffffffffffffffffffffffffff168152602001908152602001600020908051906020019061238d9291906134ac565b50505050505b600061239f6004612954565b90506040518060a001604052808281526020013373ffffffffffffffffffffffffffffffffffffffff1681526020018673ffffffffffffffffffffffffffffffffffffffff16815260200184815260200185815250600960008381526020019081526020016000206000820151816000015560208201518160010160006101000a81548173ffffffffffffffffffffffffffffffffffffffff021916908373ffffffffffffffffffffffffffffffffffffffff16021790555060408201518160020160006101000a81548173ffffffffffffffffffffffffffffffffffffffff021916908373ffffffffffffffffffffffffffffffffffffffff16021790555060608201518160030190816124b4919061480f565b506080820151816004015590505060056000878152602001908152602001600020600a0181908060018154018082558091505060019003906000526020600020016000909190919091505561250960046129fb565b505050505050565b600060056000838152602001908152602001600020600201805490509050919050565b61254661253f612854565b8383612b44565b5050565b6060600760008373ffffffffffffffffffffffffffffffffffffffff1673ffffffffffffffffffffffffffffffffffffffff1681526020019081526020016000208054806020026020016040519081016040528092919081815260200182805480156125d557602002820191906000526020600020905b8154815260200190600101908083116125c1575b50505050509050919050565b6000600160008473ffffffffffffffffffffffffffffffffffffffff1673ffffffffffffffffffffffffffffffffffffffff16815260200190815260200160002060008373ffffffffffffffffffffffffffffffffffffffff1673ffffffffffffffffffffffffffffffffffffffff16815260200190815260200160002060009054906101000a900460ff16905092915050565b600061267f612854565b90508073ffffffffffffffffffffffffffffffffffffffff168673ffffffffffffffffffffffffffffffffffffffff16141580156126c457506126c286826125e1565b155b156127085780866040517fe237d9220000000000000000000000000000000000000000000000000000000081526004016126ff9291906145ce565b60405180910390fd5b6127158686868686612a39565b505050505050565b600073ffffffffffffffffffffffffffffffffffffffff166005600084815260200190815260200160002060030160009054906101000a900473ffffffffffffffffffffffffffffffffffffffff1673ffffffffffffffffffffffffffffffffffffffff16036127c2576040517f08c379a00000000000000000000000000000000000000000000000000000000081526004016127b990614ba8565b60405180910390fd5b806005600084815260200190815260200160002060010190816127e5919061480f565b505050565b60007f01ffc9a7000000000000000000000000000000000000000000000000000000007bffffffffffffffffffffffffffffffffffffffffffffffffffffffff1916827bffffffffffffffffffffffffffffffffffffffffffffffffffffffff1916149050919050565b600033905090565b600073ffffffffffffffffffffffffffffffffffffffff168473ffffffffffffffffffffffffffffffffffffffff16036128ce5760006040517f57f447ce0000000000000000000000000000000000000000000000000000000081526004016128c59190614bc8565b60405180910390fd5b600073ffffffffffffffffffffffffffffffffffffffff168573ffffffffffffffffffffffffffffffffffffffff16036129405760006040517f01a835140000000000000000000000000000000000000000000000000000000081526004016129379190614bc8565b60405180910390fd5b61294d8585858585612cb4565b5050505050565b600081600001549050919050565b600073ffffffffffffffffffffffffffffffffffffffff168473ffffffffffffffffffffffffffffffffffffffff16036129d45760006040517f57f447ce0000000000000000000000000000000000000000000000000000000081526004016129cb9190614bc8565b60405180910390fd5b6000806129e18585612d66565b915091506129f3600087848487612cb4565b505050505050565b6001816000016000828254019250508190555050565b600060208202602084010151905092915050565b600060208202602084010151905092915050565b600073ffffffffffffffffffffffffffffffffffffffff168473ffffffffffffffffffffffffffffffffffffffff1603612aab5760006040517f57f447ce000000000000000000000000000000000000000000000000000000008152600401612aa29190614bc8565b60405180910390fd5b600073ffffffffffffffffffffffffffffffffffffffff168573ffffffffffffffffffffffffffffffffffffffff1603612b1d5760006040517f01a83514000000000000000000000000000000000000000000000000000000008152600401612b149190614bc8565b60405180910390fd5b600080612b2a8585612d66565b91509150612b3b8787848487612cb4565b50505050505050565b600073ffffffffffffffffffffffffffffffffffffffff168273ffffffffffffffffffffffffffffffffffffffff1603612bb65760006040517fced3e100000000000000000000000000000000000000000000000000000000008152600401612bad9190614bc8565b60405180910390fd5b80600160008573ffffffffffffffffffffffffffffffffffffffff1673ffffffffffffffffffffffffffffffffffffffff16815260200190815260200160002060008473ffffffffffffffffffffffffffffffffffffffff1673ffffffffffffffffffffffffffffffffffffffff16815260200190815260200160002060006101000a81548160ff0219169083151502179055508173ffffffffffffffffffffffffffffffffffffffff168373ffffffffffffffffffffffffffffffffffffffff167f17307eab39ab6107e8899845ad3d59bd9653f200f220920489ca2b5937696c3183604051612ca79190613752565b60405180910390a3505050565b612cc085858585612d96565b600073ffffffffffffffffffffffffffffffffffffffff168473ffffffffffffffffffffffffffffffffffffffff1614612d5f576000612cfe612854565b90506001845103612d4e576000612d1f600086612a2590919063ffffffff16565b90506000612d37600086612a2590919063ffffffff16565b9050612d47838989858589613144565b5050612d5d565b612d5c8187878787876132f8565b5b505b5050505050565b60608060405191506001825283602083015260408201905060018152826020820152604081016040529250929050565b8051825114612de057815181516040517f5b059991000000000000000000000000000000000000000000000000000000008152600401612dd7929190614944565b60405180910390fd5b6000612dea612854565b905060005b8351811015612fff576000612e0d8286612a2590919063ffffffff16565b90506000612e248386612a2590919063ffffffff16565b9050600073ffffffffffffffffffffffffffffffffffffffff168873ffffffffffffffffffffffffffffffffffffffff1614612f5157600080600084815260200190815260200160002060008a73ffffffffffffffffffffffffffffffffffffffff1673ffffffffffffffffffffffffffffffffffffffff16815260200190815260200160002054905081811015612ef957888183856040517f03dee4c5000000000000000000000000000000000000000000000000000000008152600401612ef09493929190614be3565b60405180910390fd5b81810360008085815260200190815260200160002060008b73ffffffffffffffffffffffffffffffffffffffff1673ffffffffffffffffffffffffffffffffffffffff16815260200190815260200160002081905550505b600073ffffffffffffffffffffffffffffffffffffffff168773ffffffffffffffffffffffffffffffffffffffff1614612fec578060008084815260200190815260200160002060008973ffffffffffffffffffffffffffffffffffffffff1673ffffffffffffffffffffffffffffffffffffffff1681526020019081526020016000206000828254612fe49190614910565b925050819055505b505080612ff89061499c565b9050612def565b5060018351036130be57600061301f600085612a2590919063ffffffff16565b90506000613037600085612a2590919063ffffffff16565b90508573ffffffffffffffffffffffffffffffffffffffff168773ffffffffffffffffffffffffffffffffffffffff168473ffffffffffffffffffffffffffffffffffffffff167fc3d58168c5ae7397731d063d5bbf3d657854427343f4c083240f7aacaa2d0f6285856040516130af929190614944565b60405180910390a4505061313d565b8373ffffffffffffffffffffffffffffffffffffffff168573ffffffffffffffffffffffffffffffffffffffff168273ffffffffffffffffffffffffffffffffffffffff167f4a39dc06d4c0dbc64b70af90fd698a233a518aa5d07e595d983b8c0526c8f7fb8686604051613134929190614c28565b60405180910390a45b5050505050565b60008473ffffffffffffffffffffffffffffffffffffffff163b11156132f0578373ffffffffffffffffffffffffffffffffffffffff1663f23a6e6187878686866040518663ffffffff1660e01b81526004016131a5959493929190614cb4565b6020604051808303816000875af19250505080156131e157506040513d601f19601f820116820180604052508101906131de9190614d23565b60015b613265573d8060008114613211576040519150601f19603f3d011682016040523d82523d6000602084013e613216565b606091505b50600081510361325d57846040517f57f447ce0000000000000000000000000000000000000000000000000000000081526004016132549190614bc8565b60405180910390fd5b805181602001fd5b63f23a6e6160e01b7bffffffffffffffffffffffffffffffffffffffffffffffffffffffff1916817bffffffffffffffffffffffffffffffffffffffffffffffffffffffff1916146132ee57846040517f57f447ce0000000000000000000000000000000000000000000000000000000081526004016132e59190614bc8565b60405180910390fd5b505b505050505050565b60008473ffffffffffffffffffffffffffffffffffffffff163b11156134a4578373ffffffffffffffffffffffffffffffffffffffff1663bc197c8187878686866040518663ffffffff1660e01b8152600401613359959493929190614d50565b6020604051808303816000875af192505050801561339557506040513d601f19601f820116820180604052508101906133929190614d23565b60015b613419573d80600081146133c5576040519150601f19603f3d011682016040523d82523d6000602084013e6133ca565b606091505b50600081510361341157846040517f57f447ce0000000000000000000000000000000000000000000000000000000081526004016134089190614bc8565b60405180910390fd5b805181602001fd5b63bc197c8160e01b7bffffffffffffffffffffffffffffffffffffffffffffffffffffffff1916817bffffffffffffffffffffffffffffffffffffffffffffffffffffffff1916146134a257846040517f57f447ce0000000000000000000000000000000000000000000000000000000081526004016134999190614bc8565b60405180910390fd5b505b505050505050565b8280548282559060005260206000209081019282156134e8579160200282015b828111156134e75782518255916020019190600101906134cc565b5b5090506134f59190613583565b5090565b828054828255906000526020600020908101928215613572579160200282015b828111156135715782518260006101000a81548173ffffffffffffffffffffffffffffffffffffffff021916908373ffffffffffffffffffffffffffffffffffffffff16021790555091602001919060010190613519565b5b50905061357f9190613583565b5090565b5b8082111561359c576000816000905550600101613584565b5090565b6000604051905090565b600080fd5b600080fd5b600073ffffffffffffffffffffffffffffffffffffffff82169050919050565b60006135df826135b4565b9050919050565b6135ef816135d4565b81146135fa57600080fd5b50565b60008135905061360c816135e6565b92915050565b6000819050919050565b61362581613612565b811461363057600080fd5b50565b6000813590506136428161361c565b92915050565b6000806040838503121561365f5761365e6135aa565b5b600061366d858286016135fd565b925050602061367e85828601613633565b9150509250929050565b61369181613612565b82525050565b60006020820190506136ac6000830184613688565b92915050565b60007fffffffff0000000000000000000000000000000000000000000000000000000082169050919050565b6136e7816136b2565b81146136f257600080fd5b50565b600081359050613704816136de565b92915050565b6000602082840312156137205761371f6135aa565b5b600061372e848285016136f5565b91505092915050565b60008115159050919050565b61374c81613737565b82525050565b60006020820190506137676000830184613743565b92915050565b600080fd5b600080fd5b6000601f19601f8301169050919050565b7f4e487b7100000000000000000000000000000000000000000000000000000000600052604160045260246000fd5b6137c082613777565b810181811067ffffffffffffffff821117156137df576137de613788565b5b80604052505050565b60006137f26135a0565b90506137fe82826137b7565b919050565b600067ffffffffffffffff82111561381e5761381d613788565b5b61382782613777565b9050602081019050919050565b82818337600083830152505050565b600061385661385184613803565b6137e8565b90508281526020810184848401111561387257613871613772565b5b61387d848285613834565b509392505050565b600082601f83011261389a5761389961376d565b5b81356138aa848260208601613843565b91505092915050565b6000602082840312156138c9576138c86135aa565b5b600082013567ffffffffffffffff8111156138e7576138e66135af565b5b6138f384828501613885565b91505092915050565b600060208284031215613912576139116135aa565b5b600061392084828501613633565b91505092915050565b600081519050919050565b600082825260208201905092915050565b60005b83811015613963578082015181840152602081019050613948565b60008484015250505050565b600061397a82613929565b6139848185613934565b9350613994818560208601613945565b61399d81613777565b840191505092915050565b600060208201905081810360008301526139c2818461396f565b905092915050565b6139d3816135d4565b82525050565b600081519050919050565b600082825260208201905092915050565b6000819050602082019050919050565b613a0e81613612565b82525050565b6000613a208383613a05565b60208301905092915050565b6000602082019050919050565b6000613a44826139d9565b613a4e81856139e4565b9350613a59836139f5565b8060005b83811015613a8a578151613a718882613a14565b9750613a7c83613a2c565b925050600181019050613a5d565b5085935050505092915050565b6000604082019050613aac60008301856139ca565b8181036020830152613abe8184613a39565b90509392505050565b60008060408385031215613ade57613add6135aa565b5b6000613aec85828601613633565b9250506020613afd858286016135fd565b9150509250929050565b600067ffffffffffffffff821115613b2257613b21613788565b5b602082029050602081019050919050565b600080fd5b6000613b4b613b4684613b07565b6137e8565b90508083825260208201905060208402830185811115613b6e57613b6d613b33565b5b835b81811015613b975780613b838882613633565b845260208401935050602081019050613b70565b5050509392505050565b600082601f830112613bb657613bb561376d565b5b8135613bc6848260208601613b38565b91505092915050565b600067ffffffffffffffff821115613bea57613be9613788565b5b613bf382613777565b9050602081019050919050565b6000613c13613c0e84613bcf565b6137e8565b905082815260208101848484011115613c2f57613c2e613772565b5b613c3a848285613834565b509392505050565b600082601f830112613c5757613c5661376d565b5b8135613c67848260208601613c00565b91505092915050565b600080600080600060a08688031215613c8c57613c8b6135aa565b5b6000613c9a888289016135fd565b9550506020613cab888289016135fd565b945050604086013567ffffffffffffffff811115613ccc57613ccb6135af565b5b613cd888828901613ba1565b935050606086013567ffffffffffffffff811115613cf957613cf86135af565b5b613d0588828901613ba1565b925050608086013567ffffffffffffffff811115613d2657613d256135af565b5b613d3288828901613c42565b9150509295509295909350565b6000608082019050613d5460008301876139ca565b613d6160208301866139ca565b8181036040830152613d73818561396f565b9050613d826060830184613688565b95945050505050565b600080600080600080600080610100898b031215613dac57613dab6135aa565b5b600089013567ffffffffffffffff811115613dca57613dc96135af565b5b613dd68b828c01613885565b985050602089013567ffffffffffffffff811115613df757613df66135af565b5b613e038b828c01613885565b975050604089013567ffffffffffffffff811115613e2457613e236135af565b5b613e308b828c01613885565b965050606089013567ffffffffffffffff811115613e5157613e506135af565b5b613e5d8b828c01613885565b9550506080613e6e8b828c01613633565b94505060a089013567ffffffffffffffff811115613e8f57613e8e6135af565b5b613e9b8b828c01613885565b93505060c089013567ffffffffffffffff811115613ebc57613ebb6135af565b5b613ec88b828c01613885565b92505060e089013567ffffffffffffffff811115613ee957613ee86135af565b5b613ef58b828c01613885565b9150509295985092959890939650565b600067ffffffffffffffff821115613f2057613f1f613788565b5b602082029050602081019050919050565b6000613f44613f3f84613f05565b6137e8565b90508083825260208201905060208402830185811115613f6757613f66613b33565b5b835b81811015613f905780613f7c88826135fd565b845260208401935050602081019050613f69565b5050509392505050565b600082601f830112613faf57613fae61376d565b5b8135613fbf848260208601613f31565b91505092915050565b60008060408385031215613fdf57613fde6135aa565b5b600083013567ffffffffffffffff811115613ffd57613ffc6135af565b5b61400985828601613f9a565b925050602083013567ffffffffffffffff81111561402a576140296135af565b5b61403685828601613ba1565b9150509250929050565b6000602082019050818103600083015261405a8184613a39565b905092915050565b600081519050919050565b600082825260208201905092915050565b6000819050602082019050919050565b614097816135d4565b82525050565b60006140a9838361408e565b60208301905092915050565b6000602082019050919050565b60006140cd82614062565b6140d7818561406d565b93506140e28361407e565b8060005b838110156141135781516140fa888261409d565b9750614105836140b5565b9250506001810190506140e6565b5085935050505092915050565b600061014082019050818103600083015261413b818d6140c2565b905061414a602083018c6139ca565b818103604083015261415c818b61396f565b90508181036060830152614170818a61396f565b90508181036080830152614184818961396f565b905081810360a08301526141988188613a39565b905081810360c08301526141ac818761396f565b905081810360e08301526141c0818661396f565b90506141d0610100830185613688565b8181036101208301526141e3818461396f565b90509b9a5050505050505050505050565b6000806000806080858703121561420e5761420d6135aa565b5b600061421c87828801613633565b945050602061422d878288016135fd565b935050604061423e87828801613633565b925050606085013567ffffffffffffffff81111561425f5761425e6135af565b5b61426b87828801613885565b91505092959194509250565b61428081613737565b811461428b57600080fd5b50565b60008135905061429d81614277565b92915050565b600080604083850312156142ba576142b96135aa565b5b60006142c8858286016135fd565b92505060206142d98582860161428e565b9150509250929050565b6000602082840312156142f9576142f86135aa565b5b6000614307848285016135fd565b91505092915050565b60008060408385031215614327576143266135aa565b5b6000614335858286016135fd565b9250506020614346858286016135fd565b9150509250929050565b600080600080600060a0868803121561436c5761436b6135aa565b5b600061437a888289016135fd565b955050602061438b888289016135fd565b945050604061439c88828901613633565b93505060606143ad88828901613633565b925050608086013567ffffffffffffffff8111156143ce576143cd6135af565b5b6143da88828901613c42565b9150509295509295909350565b600080604083850312156143fe576143fd6135aa565b5b600061440c85828601613633565b925050602083013567ffffffffffffffff81111561442d5761442c6135af565b5b61443985828601613885565b9150509250929050565b600081905092915050565b600061445982613929565b6144638185614443565b9350614473818560208601613945565b80840191505092915050565b600061448b828461444e565b915081905092915050565b7f436f6c6c656374696f6e20616c72656164792065786973747300000000000000600082015250565b60006144cc601983613934565b91506144d782614496565b602082019050919050565b600060208201905081810360008301526144fb816144bf565b9050919050565b7f4e487b7100000000000000000000000000000000000000000000000000000000600052602260045260246000fd5b6000600282049050600182168061454957607f821691505b60208210810361455c5761455b614502565b5b50919050565b7f436f6c6c656374696f6e20646f65736e27742065786973740000000000000000600082015250565b6000614598601883613934565b91506145a382614562565b602082019050919050565b600060208201905081810360008301526145c78161458b565b9050919050565b60006040820190506145e360008301856139ca565b6145f060208301846139ca565b9392505050565b7f4e6f7420746865206f776e6572206f662074686520636f6c6c656374696f6e00600082015250565b600061462d601f83613934565b9150614638826145f7565b602082019050919050565b6000602082019050818103600083015261465c81614620565b9050919050565b60008190508160005260206000209050919050565b60006020601f8301049050919050565b600082821b905092915050565b6000600883026146c57fffffffffffffffffffffffffffffffffffffffffffffffffffffffffffffffff82614688565b6146cf8683614688565b95508019841693508086168417925050509392505050565b6000819050919050565b600061470c61470761470284613612565b6146e7565b613612565b9050919050565b6000819050919050565b614726836146f1565b61473a61473282614713565b848454614695565b825550505050565b600090565b61474f614742565b61475a81848461471d565b505050565b5b8181101561477e57614773600082614747565b600181019050614760565b5050565b601f8211156147c35761479481614663565b61479d84614678565b810160208510156147ac578190505b6147c06147b885614678565b83018261475f565b50505b505050565b600082821c905092915050565b60006147e6600019846008026147c8565b1980831691505092915050565b60006147ff83836147d5565b9150826002028217905092915050565b61481882613929565b67ffffffffffffffff81111561483157614830613788565b5b61483b8254614531565b614846828285614782565b600060209050601f8311600181146148795760008415614867578287015190505b61487185826147f3565b8655506148d9565b601f19841661488786614663565b60005b828110156148af5784890151825560018201915060208501945060208101905061488a565b868310156148cc57848901516148c8601f8916826147d5565b8355505b6001600288020188555050505b505050505050565b7f4e487b7100000000000000000000000000000000000000000000000000000000600052601160045260246000fd5b600061491b82613612565b915061492683613612565b925082820190508082111561493e5761493d6148e1565b5b92915050565b60006040820190506149596000830185613688565b6149666020830184613688565b9392505050565b7f4e487b7100000000000000000000000000000000000000000000000000000000600052603260045260246000fd5b60006149a782613612565b91507fffffffffffffffffffffffffffffffffffffffffffffffffffffffffffffffff82036149d9576149d86148e1565b5b600182019050919050565b7f4e465420646f65736e2774206578697374000000000000000000000000000000600082015250565b6000614a1a601183613934565b9150614a25826149e4565b602082019050919050565b60006020820190508181036000830152614a4981614a0d565b9050919050565b7f496e73756666696369656e74204e46547320746f207472616e73666572000000600082015250565b6000614a86601d83613934565b9150614a9182614a50565b602082019050919050565b60006020820190508181036000830152614ab581614a79565b9050919050565b7f496e76616c696420726563697069656e74206164647265737300000000000000600082015250565b6000614af2601983613934565b9150614afd82614abc565b602082019050919050565b60006020820190508181036000830152614b2181614ae5565b9050919050565b6000614b3382613612565b9150614b3e83613612565b9250828203905081811115614b5657614b556148e1565b5b92915050565b7f4e46547320646f65736e27742065786973740000000000000000000000000000600082015250565b6000614b92601283613934565b9150614b9d82614b5c565b602082019050919050565b60006020820190508181036000830152614bc181614b85565b9050919050565b6000602082019050614bdd60008301846139ca565b92915050565b6000608082019050614bf860008301876139ca565b614c056020830186613688565b614c126040830185613688565b614c1f6060830184613688565b95945050505050565b60006040820190508181036000830152614c428185613a39565b90508181036020830152614c568184613a39565b90509392505050565b600081519050919050565b600082825260208201905092915050565b6000614c8682614c5f565b614c908185614c6a565b9350614ca0818560208601613945565b614ca981613777565b840191505092915050565b600060a082019050614cc960008301886139ca565b614cd660208301876139ca565b614ce36040830186613688565b614cf06060830185613688565b8181036080830152614d028184614c7b565b90509695505050505050565b600081519050614d1d816136de565b92915050565b600060208284031215614d3957614d386135aa565b5b6000614d4784828501614d0e565b91505092915050565b600060a082019050614d6560008301886139ca565b614d7260208301876139ca565b8181036040830152614d848186613a39565b90508181036060830152614d988185613a39565b90508181036080830152614dac8184614c7b565b9050969550505050505056fea26469706673582212204f2448874d9705987e1c4b8f8d893583c580daf3af4d99dec15c5c4aa9e169a264736f6c6343000814003368747470733a2f2f676174657761792e70696e6174612e636c6f75642f697066732f7b69647d",
  "immutableReferences": {},
  "source": "// SPDX-License-Identifier: MIT\r\n// pragma solidity ^0.8.20;\r\npragma solidity ^0.8.20;\r\n\r\nimport \"@openzeppelin/contracts/token/ERC1155/ERC1155.sol\";\r\nimport \"@openzeppelin/contracts/utils/Counters.sol\";\r\n\r\ncontract NFTContractUpdated is ERC1155 {\r\n    using Counters for Counters.Counter;\r\n    Counters.Counter private tokenIdCounter;     // Counter for creating unique token ids\r\n    Counters.Counter private transactionIdCounter; // Counter for creating unique transaction ids\r\n\r\n    // Schema for an NFT\r\n    struct NFT{\r\n        uint256 id;\r\n        string cid;\r\n        address[] owners;          // Array- wallet id of all the owners of the NFT\r\n        address creator;\r\n        string name;\r\n        string description;\r\n        uint256 amount;\r\n        string dateCreated;\r\n        string filetype;\r\n        string collectionId;\r\n        uint256[] transactions;\r\n        string value;\r\n    }\r\n\r\n    // Schema for a Collection\r\n    struct Collection{\r\n        address owner;\r\n        uint256[] nfts;        // Token id- all the NFTs of the collection\r\n    }\r\n\r\n    // Schema for a transaction\r\n    struct Transaction{\r\n        uint256 transactionId;\r\n        address sender;\r\n        address receiver;\r\n        string date;\r\n        uint256 supply;\r\n    }\r\n\r\n    mapping(uint256 => NFT) private nfts;                               // To store all NFTs\r\n    mapping(string => Collection) private collections;                 // To store all Collections\r\n    mapping(address => uint256[]) private userCollections;              // NFTs owned by a user\r\n    mapping(uint256 => mapping(address => uint256)) public balances;    // Copies of an NFT owned by a user\r\n    mapping(uint256 => Transaction) private transactions;               // Transaction of NFTs\r\n\r\n    constructor() ERC1155(\"https://gateway.pinata.cloud/ipfs/{id}\"){\r\n    }\r\n\r\n    // Function to create a Collection\r\n    function createCollection(string memory _collectionId) external {\r\n        require(collections[_collectionId].owner == address(0), \"Collection already exists\");\r\n\r\n        collections[_collectionId] = Collection({\r\n            owner: msg.sender,\r\n            nfts: new uint256[](0)\r\n        });\r\n    }\r\n\r\n    // Function to mint an NFT\r\n    function createNFT(\r\n        string memory _cid,\r\n        string memory _name,\r\n        string memory _description,\r\n        string memory _filetype,\r\n        uint256 _amount,\r\n        string memory _collectionId,\r\n        string memory _dateCreated,\r\n        string memory _value\r\n    )   external \r\n        returns (uint256 tokenId)\r\n    {\r\n        uint256 _transactionId = transactionIdCounter.current();\r\n        uint256 _id = tokenIdCounter.current();\r\n        require(collections[_collectionId].owner != address(0), \"Collection doesn't exist\");\r\n        require(collections[_collectionId].owner == msg.sender, \"Not the owner of the collection\");\r\n\r\n        transactions[_transactionId] = Transaction({\r\n            transactionId: _transactionId,\r\n            sender: address(0),\r\n            receiver: msg.sender,\r\n            date: _dateCreated,\r\n            supply: _amount\r\n        });\r\n\r\n        nfts[_id] = NFT({\r\n            id: _id,\r\n            cid: _cid,\r\n            collectionId: _collectionId,\r\n            owners: new address[](0),\r\n            creator: msg.sender,\r\n            name: _name,\r\n            description: _description,\r\n            amount: _amount,\r\n            filetype: _filetype,\r\n            dateCreated: _dateCreated,\r\n            transactions: new uint256[](0),\r\n            value: _value\r\n        });\r\n        \r\n        _mint(msg.sender, _id, _amount, \"\");\r\n        collections[_collectionId].nfts.push(_id);            // Adding the token id in the Collection\r\n        userCollections[msg.sender].push(_id);                // Adding the NFT in the ownership of the user\r\n        balances[_id][msg.sender] += _amount;                 // Increasing the supply of the NFT for creator\r\n        nfts[_id].owners.push(msg.sender);                    // Adding wallet id in the owners array of NFT\r\n        nfts[_id].transactions.push(_transactionId);          // Adding the transaction in the array of transactions of the NFT\r\n        transactionIdCounter.increment();\r\n        tokenIdCounter.increment();\r\n\r\n        return _id;\r\n    }\r\n\r\n    // Function to transfer an NFT\r\n    function transferNFT(uint256 _id, address _to, uint256 _amount, string memory _date) external {\r\n        require(balances[_id][msg.sender] >= _amount, \"Insufficient NFTs to transfer\");\r\n        require(_to != address(0), \"Invalid recipient address\");\r\n        require(nfts[_id].creator != address(0), \"NFT doesn't exist\");\r\n\r\n        _safeTransferFrom(msg.sender, _to, _id, _amount, \"\");\r\n        \r\n        balances[_id][msg.sender] -= _amount;                 // Decreasing supply of the sender\r\n        balances[_id][_to] += _amount;                        // Increasing supply of the receiver\r\n        \r\n        bool isAdded = false;\r\n        for(uint256 i=0; i<nfts[_id].owners.length; i++){    \r\n            if(nfts[_id].owners[i] == _to){             // Checking if user is already added as an owner\r\n                isAdded = true;\r\n                break;\r\n            }\r\n        }\r\n\r\n        if(isAdded == false){\r\n            nfts[_id].owners.push(_to);                  // Adding wallet id of receiver in the owners array of NFT\r\n            userCollections[_to].push(_id);                       // Adding the NFT in the ownership of the receiver\r\n        }\r\n\r\n        if(balances[_id][msg.sender] == 0){                 // Works if supply of sender is 0 after transaction\r\n            uint256 i = 0;\r\n            uint256 indexCount=0;\r\n\r\n            address[] memory newOwners = new address[](nfts[_id].owners.length-1);\r\n            for(i=0; i<nfts[_id].owners.length; i++){\r\n                if(nfts[_id].owners[i] != msg.sender){\r\n                    newOwners[indexCount]=nfts[_id].owners[i];\r\n                    indexCount++;\r\n                }\r\n            }\r\n            nfts[_id].owners = newOwners;                  // Removing sender's id from owners array of NFT\r\n\r\n            uint256[] memory newCollection=new uint256[](userCollections[msg.sender].length-1);\r\n            indexCount=0;\r\n\t\t    for (i = 0; i<userCollections[msg.sender].length; i++){\r\n           \t    if(userCollections[msg.sender][i] != _id){\r\n\t\t\t\t    newCollection[indexCount]=userCollections[msg.sender][i];\r\n\t\t\t\t    indexCount++;\r\n\t\t\t    }\r\n            }\r\n\t\t    userCollections[msg.sender]=newCollection;     // Removing NFT from the ownership of receiver\r\n        }\r\n\r\n        uint256 _transactionId = transactionIdCounter.current();\r\n        transactions[_transactionId] = Transaction({       // Creating a new transaction\r\n            transactionId: _transactionId,\r\n            sender: msg.sender,\r\n            receiver: _to,\r\n            date: _date,\r\n            supply: _amount\r\n        });\r\n\r\n        nfts[_id].transactions.push(_transactionId);  // Adding the transaction to the array of transactions for the nft\r\n        transactionIdCounter.increment();\r\n    }\r\n\r\n    // Function to get details of an NFT\r\n    function getNFT(uint256 _id)\r\n        external \r\n        view \r\n        returns (\r\n            address[] memory owners,\r\n            address creator,\r\n            string memory collectionId,\r\n            string memory name,\r\n            string memory description,\r\n            uint256[] memory transaction,\r\n            string memory cid,\r\n            string memory dateCreated,\r\n            uint256 amount,\r\n            string memory value\r\n        )\r\n    {\r\n        require(nfts[_id].creator != address(0), \"NFT doesn't exist\");\r\n\r\n        NFT memory nft = nfts[_id];\r\n        return (\r\n            nft.owners,\r\n            nft.creator,\r\n            nft.collectionId,\r\n            nft.name,\r\n            nft.description,\r\n            nft.transactions,\r\n            nft.cid,\r\n            nft.dateCreated,\r\n            nft.amount,\r\n            nft.value\r\n        );\r\n    }\r\n\r\n    // Function to get details of a Collection\r\n    function getCollection(string memory _collectionId)\r\n        external \r\n        view \r\n        returns (\r\n            address owner,\r\n            uint256[] memory nft\r\n        )\r\n    {\r\n        require(collections[_collectionId].owner != address(0), \"Collection doesn't exist\");\r\n        Collection memory collection = collections[_collectionId];\r\n\r\n        return (\r\n            collection.owner,\r\n            collection.nfts\r\n        );\r\n    }\r\n\r\n    //Function to get detail of a transaction\r\n    function getTransaction(uint256 _transactionId)\r\n        external \r\n        view \r\n        returns (\r\n            address sender,\r\n            address receiver,\r\n            string memory date,\r\n            uint256 supply\r\n        )\r\n    {\r\n        Transaction memory currentTransaction = transactions[_transactionId];\r\n        return(\r\n            currentTransaction.sender,\r\n            currentTransaction.receiver,\r\n            currentTransaction.date,\r\n            currentTransaction.supply\r\n        );\r\n    }\r\n\r\n    // Function to get supply of an NFT for a user\r\n    function getBalance(address _owner, uint256 _id)\r\n        external \r\n        view \r\n        returns (uint256)\r\n    {\r\n        return balances[_id][_owner];\r\n    }\r\n\r\n    // Function to get number of owners of an NFT\r\n    function getNumberOfOwners(uint256 _id)\r\n        external \r\n        view \r\n        returns (uint256)\r\n    {\r\n        return nfts[_id].owners.length;\r\n    }\r\n\r\n    // Function to get all the NFTs owned by a user\r\n    function getNFTsByOwner(address _owner)\r\n        external \r\n        view \r\n        returns(uint256[] memory)\r\n    {\r\n        return userCollections[_owner];\r\n    }\r\n\r\n    // Function to update CID of an NFT\r\n    function updateCID(uint _id, string memory _cid) external {\r\n        require(nfts[_id].creator != address(0), \"NFTs doesn't exist\");\r\n\r\n        nfts[_id].cid = _cid;\r\n    }\r\n}",
  "sourcePath": "C:\\Users\\Abhimanyu\\Documents\\ytnode\\truffle\\contracts\\NFTContractUpdated.sol",
  "compiler": {
    "name": "solc",
    "version": "0.8.20+commit.a1b79de6.Emscripten.clang"
  },
  "schemaVersion": "3.4.16",
  "updatedAt": "2023-11-13T10:48:31.802Z",
  "networkType": "ethereum",
  "devdoc": {
    "errors": {
      "ERC1155InsufficientBalance(address,uint256,uint256,uint256)": [
        {
          "details": "Indicates an error related to the current `balance` of a `sender`. Used in transfers.",
          "params": {
            "balance": "Current balance for the interacting account.",
            "needed": "Minimum amount required to perform a transfer.",
            "sender": "Address whose tokens are being transferred.",
            "tokenId": "Identifier number of a token."
          }
        }
      ],
      "ERC1155InvalidApprover(address)": [
        {
          "details": "Indicates a failure with the `approver` of a token to be approved. Used in approvals.",
          "params": {
            "approver": "Address initiating an approval operation."
          }
        }
      ],
      "ERC1155InvalidArrayLength(uint256,uint256)": [
        {
          "details": "Indicates an array length mismatch between ids and values in a safeBatchTransferFrom operation. Used in batch transfers.",
          "params": {
            "idsLength": "Length of the array of token identifiers",
            "valuesLength": "Length of the array of token amounts"
          }
        }
      ],
      "ERC1155InvalidOperator(address)": [
        {
          "details": "Indicates a failure with the `operator` to be approved. Used in approvals.",
          "params": {
            "operator": "Address that may be allowed to operate on tokens without being their owner."
          }
        }
      ],
      "ERC1155InvalidReceiver(address)": [
        {
          "details": "Indicates a failure with the token `receiver`. Used in transfers.",
          "params": {
            "receiver": "Address to which tokens are being transferred."
          }
        }
      ],
      "ERC1155InvalidSender(address)": [
        {
          "details": "Indicates a failure with the token `sender`. Used in transfers.",
          "params": {
            "sender": "Address whose tokens are being transferred."
          }
        }
      ],
      "ERC1155MissingApprovalForAll(address,address)": [
        {
          "details": "Indicates a failure with the `operator`s approval. Used in transfers.",
          "params": {
            "operator": "Address that may be allowed to operate on tokens without being their owner.",
            "owner": "Address of the current owner of a token."
          }
        }
      ]
    },
    "events": {
      "ApprovalForAll(address,address,bool)": {
        "details": "Emitted when `account` grants or revokes permission to `operator` to transfer their tokens, according to `approved`."
      },
      "TransferBatch(address,address,address,uint256[],uint256[])": {
        "details": "Equivalent to multiple {TransferSingle} events, where `operator`, `from` and `to` are the same for all transfers."
      },
      "TransferSingle(address,address,address,uint256,uint256)": {
        "details": "Emitted when `value` amount of tokens of type `id` are transferred from `from` to `to` by `operator`."
      },
      "URI(string,uint256)": {
        "details": "Emitted when the URI for token type `id` changes to `value`, if it is a non-programmatic URI. If an {URI} event was emitted for `id`, the standard https://eips.ethereum.org/EIPS/eip-1155#metadata-extensions[guarantees] that `value` will equal the value returned by {IERC1155MetadataURI-uri}."
      }
    },
    "kind": "dev",
    "methods": {
      "balanceOf(address,uint256)": {
        "details": "See {IERC1155-balanceOf}."
      },
      "balanceOfBatch(address[],uint256[])": {
        "details": "See {IERC1155-balanceOfBatch}. Requirements: - `accounts` and `ids` must have the same length."
      },
      "isApprovedForAll(address,address)": {
        "details": "See {IERC1155-isApprovedForAll}."
      },
      "safeBatchTransferFrom(address,address,uint256[],uint256[],bytes)": {
        "details": "See {IERC1155-safeBatchTransferFrom}."
      },
      "safeTransferFrom(address,address,uint256,uint256,bytes)": {
        "details": "See {IERC1155-safeTransferFrom}."
      },
      "setApprovalForAll(address,bool)": {
        "details": "See {IERC1155-setApprovalForAll}."
      },
      "supportsInterface(bytes4)": {
        "details": "See {IERC165-supportsInterface}."
      },
      "uri(uint256)": {
        "details": "See {IERC1155MetadataURI-uri}. This implementation returns the same URI for *all* token types. It relies on the token type ID substitution mechanism https://eips.ethereum.org/EIPS/eip-1155#metadata[defined in the EIP]. Clients calling this function must replace the `\\{id\\}` substring with the actual token type ID."
      }
    },
    "version": 1
  },
  "userdoc": {
    "kind": "user",
    "methods": {},
    "version": 1
  }
}