{
  "contractName": "NFThubPlatformContract",
  "abi": [
    {
      "inputs": [],
      "stateMutability": "nonpayable",
      "type": "constructor"
    },
    {
      "inputs": [
        {
          "internalType": "address",
          "name": "sender",
          "type": "address"
        },
        {
          "internalType": "uint256",
          "name": "balance",
          "type": "uint256"
        },
        {
          "internalType": "uint256",
          "name": "needed",
          "type": "uint256"
        },
        {
          "internalType": "uint256",
          "name": "tokenId",
          "type": "uint256"
        }
      ],
      "name": "ERC1155InsufficientBalance",
      "type": "error"
    },
    {
      "inputs": [
        {
          "internalType": "address",
          "name": "approver",
          "type": "address"
        }
      ],
      "name": "ERC1155InvalidApprover",
      "type": "error"
    },
    {
      "inputs": [
        {
          "internalType": "uint256",
          "name": "idsLength",
          "type": "uint256"
        },
        {
          "internalType": "uint256",
          "name": "valuesLength",
          "type": "uint256"
        }
      ],
      "name": "ERC1155InvalidArrayLength",
      "type": "error"
    },
    {
      "inputs": [
        {
          "internalType": "address",
          "name": "operator",
          "type": "address"
        }
      ],
      "name": "ERC1155InvalidOperator",
      "type": "error"
    },
    {
      "inputs": [
        {
          "internalType": "address",
          "name": "receiver",
          "type": "address"
        }
      ],
      "name": "ERC1155InvalidReceiver",
      "type": "error"
    },
    {
      "inputs": [
        {
          "internalType": "address",
          "name": "sender",
          "type": "address"
        }
      ],
      "name": "ERC1155InvalidSender",
      "type": "error"
    },
    {
      "inputs": [
        {
          "internalType": "address",
          "name": "operator",
          "type": "address"
        },
        {
          "internalType": "address",
          "name": "owner",
          "type": "address"
        }
      ],
      "name": "ERC1155MissingApprovalForAll",
      "type": "error"
    },
    {
      "anonymous": false,
      "inputs": [
        {
          "indexed": true,
          "internalType": "address",
          "name": "account",
          "type": "address"
        },
        {
          "indexed": true,
          "internalType": "address",
          "name": "operator",
          "type": "address"
        },
        {
          "indexed": false,
          "internalType": "bool",
          "name": "approved",
          "type": "bool"
        }
      ],
      "name": "ApprovalForAll",
      "type": "event"
    },
    {
      "anonymous": false,
      "inputs": [
        {
          "indexed": true,
          "internalType": "address",
          "name": "operator",
          "type": "address"
        },
        {
          "indexed": true,
          "internalType": "address",
          "name": "from",
          "type": "address"
        },
        {
          "indexed": true,
          "internalType": "address",
          "name": "to",
          "type": "address"
        },
        {
          "indexed": false,
          "internalType": "uint256[]",
          "name": "ids",
          "type": "uint256[]"
        },
        {
          "indexed": false,
          "internalType": "uint256[]",
          "name": "values",
          "type": "uint256[]"
        }
      ],
      "name": "TransferBatch",
      "type": "event"
    },
    {
      "anonymous": false,
      "inputs": [
        {
          "indexed": true,
          "internalType": "address",
          "name": "operator",
          "type": "address"
        },
        {
          "indexed": true,
          "internalType": "address",
          "name": "from",
          "type": "address"
        },
        {
          "indexed": true,
          "internalType": "address",
          "name": "to",
          "type": "address"
        },
        {
          "indexed": false,
          "internalType": "uint256",
          "name": "id",
          "type": "uint256"
        },
        {
          "indexed": false,
          "internalType": "uint256",
          "name": "value",
          "type": "uint256"
        }
      ],
      "name": "TransferSingle",
      "type": "event"
    },
    {
      "anonymous": false,
      "inputs": [
        {
          "indexed": false,
          "internalType": "string",
          "name": "value",
          "type": "string"
        },
        {
          "indexed": true,
          "internalType": "uint256",
          "name": "id",
          "type": "uint256"
        }
      ],
      "name": "URI",
      "type": "event"
    },
    {
      "inputs": [
        {
          "internalType": "address",
          "name": "account",
          "type": "address"
        },
        {
          "internalType": "uint256",
          "name": "id",
          "type": "uint256"
        }
      ],
      "name": "balanceOf",
      "outputs": [
        {
          "internalType": "uint256",
          "name": "",
          "type": "uint256"
        }
      ],
      "stateMutability": "view",
      "type": "function",
      "constant": true
    },
    {
      "inputs": [
        {
          "internalType": "address[]",
          "name": "accounts",
          "type": "address[]"
        },
        {
          "internalType": "uint256[]",
          "name": "ids",
          "type": "uint256[]"
        }
      ],
      "name": "balanceOfBatch",
      "outputs": [
        {
          "internalType": "uint256[]",
          "name": "",
          "type": "uint256[]"
        }
      ],
      "stateMutability": "view",
      "type": "function",
      "constant": true
    },
    {
      "inputs": [
        {
          "internalType": "uint256",
          "name": "",
          "type": "uint256"
        },
        {
          "internalType": "address",
          "name": "",
          "type": "address"
        }
      ],
      "name": "balances",
      "outputs": [
        {
          "internalType": "uint256",
          "name": "",
          "type": "uint256"
        }
      ],
      "stateMutability": "view",
      "type": "function",
      "constant": true
    },
    {
      "inputs": [
        {
          "internalType": "address",
          "name": "account",
          "type": "address"
        },
        {
          "internalType": "address",
          "name": "operator",
          "type": "address"
        }
      ],
      "name": "isApprovedForAll",
      "outputs": [
        {
          "internalType": "bool",
          "name": "",
          "type": "bool"
        }
      ],
      "stateMutability": "view",
      "type": "function",
      "constant": true
    },
    {
      "inputs": [
        {
          "internalType": "address",
          "name": "from",
          "type": "address"
        },
        {
          "internalType": "address",
          "name": "to",
          "type": "address"
        },
        {
          "internalType": "uint256[]",
          "name": "ids",
          "type": "uint256[]"
        },
        {
          "internalType": "uint256[]",
          "name": "values",
          "type": "uint256[]"
        },
        {
          "internalType": "bytes",
          "name": "data",
          "type": "bytes"
        }
      ],
      "name": "safeBatchTransferFrom",
      "outputs": [],
      "stateMutability": "nonpayable",
      "type": "function"
    },
    {
      "inputs": [
        {
          "internalType": "address",
          "name": "from",
          "type": "address"
        },
        {
          "internalType": "address",
          "name": "to",
          "type": "address"
        },
        {
          "internalType": "uint256",
          "name": "id",
          "type": "uint256"
        },
        {
          "internalType": "uint256",
          "name": "value",
          "type": "uint256"
        },
        {
          "internalType": "bytes",
          "name": "data",
          "type": "bytes"
        }
      ],
      "name": "safeTransferFrom",
      "outputs": [],
      "stateMutability": "nonpayable",
      "type": "function"
    },
    {
      "inputs": [
        {
          "internalType": "address",
          "name": "operator",
          "type": "address"
        },
        {
          "internalType": "bool",
          "name": "approved",
          "type": "bool"
        }
      ],
      "name": "setApprovalForAll",
      "outputs": [],
      "stateMutability": "nonpayable",
      "type": "function"
    },
    {
      "inputs": [
        {
          "internalType": "bytes4",
          "name": "interfaceId",
          "type": "bytes4"
        }
      ],
      "name": "supportsInterface",
      "outputs": [
        {
          "internalType": "bool",
          "name": "",
          "type": "bool"
        }
      ],
      "stateMutability": "view",
      "type": "function",
      "constant": true
    },
    {
      "inputs": [
        {
          "internalType": "uint256",
          "name": "",
          "type": "uint256"
        }
      ],
      "name": "uri",
      "outputs": [
        {
          "internalType": "string",
          "name": "",
          "type": "string"
        }
      ],
      "stateMutability": "view",
      "type": "function",
      "constant": true
    },
    {
      "inputs": [
        {
          "internalType": "string",
          "name": "_collectionId",
          "type": "string"
        }
      ],
      "name": "createCollection",
      "outputs": [],
      "stateMutability": "nonpayable",
      "type": "function"
    },
    {
      "inputs": [
        {
          "internalType": "string",
          "name": "_cid",
          "type": "string"
        },
        {
          "internalType": "string",
          "name": "_name",
          "type": "string"
        },
        {
          "internalType": "string",
          "name": "_description",
          "type": "string"
        },
        {
          "internalType": "string",
          "name": "_filetype",
          "type": "string"
        },
        {
          "internalType": "uint256",
          "name": "_amount",
          "type": "uint256"
        },
        {
          "internalType": "string",
          "name": "_collectionId",
          "type": "string"
        },
        {
          "internalType": "string",
          "name": "_dateCreated",
          "type": "string"
        }
      ],
      "name": "createNFT",
      "outputs": [
        {
          "internalType": "uint256",
          "name": "tokenId",
          "type": "uint256"
        }
      ],
      "stateMutability": "nonpayable",
      "type": "function"
    },
    {
      "inputs": [
        {
          "internalType": "uint256",
          "name": "_id",
          "type": "uint256"
        },
        {
          "internalType": "address",
          "name": "_to",
          "type": "address"
        },
        {
          "internalType": "uint256",
          "name": "_amount",
          "type": "uint256"
        },
        {
          "internalType": "string",
          "name": "_date",
          "type": "string"
        }
      ],
      "name": "transferNFT",
      "outputs": [],
      "stateMutability": "nonpayable",
      "type": "function"
    },
    {
      "inputs": [
        {
          "internalType": "uint256",
          "name": "_id",
          "type": "uint256"
        }
      ],
      "name": "getNFT",
      "outputs": [
        {
          "internalType": "address[]",
          "name": "owners",
          "type": "address[]"
        },
        {
          "internalType": "address",
          "name": "creator",
          "type": "address"
        },
        {
          "internalType": "string",
          "name": "collectionId",
          "type": "string"
        },
        {
          "internalType": "string",
          "name": "name",
          "type": "string"
        },
        {
          "internalType": "string",
          "name": "description",
          "type": "string"
        },
        {
          "internalType": "uint256[]",
          "name": "transaction",
          "type": "uint256[]"
        },
        {
          "internalType": "string",
          "name": "cid",
          "type": "string"
        },
        {
          "internalType": "string",
          "name": "dateCreated",
          "type": "string"
        },
        {
          "internalType": "uint256",
          "name": "amount",
          "type": "uint256"
        }
      ],
      "stateMutability": "view",
      "type": "function",
      "constant": true
    },
    {
      "inputs": [
        {
          "internalType": "string",
          "name": "_collectionId",
          "type": "string"
        }
      ],
      "name": "getCollection",
      "outputs": [
        {
          "internalType": "address",
          "name": "owner",
          "type": "address"
        },
        {
          "internalType": "uint256[]",
          "name": "nft",
          "type": "uint256[]"
        }
      ],
      "stateMutability": "view",
      "type": "function",
      "constant": true
    },
    {
      "inputs": [
        {
          "internalType": "uint256",
          "name": "_transactionId",
          "type": "uint256"
        }
      ],
      "name": "getTransaction",
      "outputs": [
        {
          "internalType": "address",
          "name": "sender",
          "type": "address"
        },
        {
          "internalType": "address",
          "name": "receiver",
          "type": "address"
        },
        {
          "internalType": "string",
          "name": "date",
          "type": "string"
        },
        {
          "internalType": "uint256",
          "name": "supply",
          "type": "uint256"
        }
      ],
      "stateMutability": "view",
      "type": "function",
      "constant": true
    },
    {
      "inputs": [
        {
          "internalType": "address",
          "name": "_owner",
          "type": "address"
        },
        {
          "internalType": "uint256",
          "name": "_id",
          "type": "uint256"
        }
      ],
      "name": "getBalance",
      "outputs": [
        {
          "internalType": "uint256",
          "name": "",
          "type": "uint256"
        }
      ],
      "stateMutability": "view",
      "type": "function",
      "constant": true
    },
    {
      "inputs": [
        {
          "internalType": "uint256",
          "name": "_id",
          "type": "uint256"
        }
      ],
      "name": "getNumberOfOwners",
      "outputs": [
        {
          "internalType": "uint256",
          "name": "",
          "type": "uint256"
        }
      ],
      "stateMutability": "view",
      "type": "function",
      "constant": true
    },
    {
      "inputs": [
        {
          "internalType": "address",
          "name": "_owner",
          "type": "address"
        }
      ],
      "name": "getNFTsByOwner",
      "outputs": [
        {
          "internalType": "uint256[]",
          "name": "",
          "type": "uint256[]"
        }
      ],
      "stateMutability": "view",
      "type": "function",
      "constant": true
    },
    {
      "inputs": [
        {
          "internalType": "uint256",
          "name": "_id",
          "type": "uint256"
        },
        {
          "internalType": "string",
          "name": "_cid",
          "type": "string"
        }
      ],
      "name": "updateCID",
      "outputs": [],
      "stateMutability": "nonpayable",
      "type": "function"
    }
  ],
  "bytecode": "0x60806040523480156200001157600080fd5b50604051806060016040528060268152602001620050b6602691396200003d816200004460201b60201c565b50620003ba565b8060029081620000559190620002d3565b5050565b600081519050919050565b7f4e487b7100000000000000000000000000000000000000000000000000000000600052604160045260246000fd5b7f4e487b7100000000000000000000000000000000000000000000000000000000600052602260045260246000fd5b60006002820490506001821680620000db57607f821691505b602082108103620000f157620000f062000093565b5b50919050565b60008190508160005260206000209050919050565b60006020601f8301049050919050565b600082821b905092915050565b6000600883026200015b7fffffffffffffffffffffffffffffffffffffffffffffffffffffffffffffffff826200011c565b6200016786836200011c565b95508019841693508086168417925050509392505050565b6000819050919050565b6000819050919050565b6000620001b4620001ae620001a8846200017f565b62000189565b6200017f565b9050919050565b6000819050919050565b620001d08362000193565b620001e8620001df82620001bb565b84845462000129565b825550505050565b600090565b620001ff620001f0565b6200020c818484620001c5565b505050565b5b81811015620002345762000228600082620001f5565b60018101905062000212565b5050565b601f82111562000283576200024d81620000f7565b62000258846200010c565b8101602085101562000268578190505b6200028062000277856200010c565b83018262000211565b50505b505050565b600082821c905092915050565b6000620002a86000198460080262000288565b1980831691505092915050565b6000620002c3838362000295565b9150826002028217905092915050565b620002de8262000059565b67ffffffffffffffff811115620002fa57620002f962000064565b5b620003068254620000c2565b6200031382828562000238565b600060209050601f8311600181146200034b576000841562000336578287015190505b620003428582620002b5565b865550620003b2565b601f1984166200035b86620000f7565b60005b8281101562000385578489015182556001820191506020850194506020810190506200035e565b86831015620003a55784890151620003a1601f89168262000295565b8355505b6001600288020188555050505b505050505050565b614cec80620003ca6000396000f3fe608060405234801561001057600080fd5b50600436106101205760003560e01c80634e1273f4116100ad578063df682ca811610071578063df682ca814610381578063e2afe8b3146103b1578063e985e9c5146103e1578063f242432a14610411578063feaeaf621461042d57610120565b80634e1273f4146102b1578063576f7ea7146102e15780635ee9d1111461031957806377e1d95d14610335578063a22cb4651461036557610120565b80630ff79b33116100f45780630ff79b33146101d15780631f320331146102025780632b04e840146102325780632eb2c2d61461026257806333ea3dc81461027e57610120565b8062fdd58e1461012557806301ffc9a714610155578063059dfe13146101855780630e89341c146101a1575b600080fd5b61013f600480360381019061013a919061358c565b610449565b60405161014c91906135db565b60405180910390f35b61016f600480360381019061016a919061364e565b6104a3565b60405161017c9190613696565b60405180910390f35b61019f600480360381019061019a91906137f7565b610585565b005b6101bb60048036038101906101b69190613840565b610731565b6040516101c891906138ec565b60405180910390f35b6101eb60048036038101906101e691906137f7565b6107c5565b6040516101f99291906139db565b60405180910390f35b61021c60048036038101906102179190613a0b565b610968565b60405161022991906135db565b60405180910390f35b61024c6004803603810190610247919061358c565b61098d565b60405161025991906135db565b60405180910390f35b61027c60048036038101906102779190613bb4565b6109e8565b005b61029860048036038101906102939190613840565b610a90565b6040516102a89493929190613c83565b60405180910390f35b6102cb60048036038101906102c69190613d92565b610c2e565b6040516102d89190613e0a565b60405180910390f35b6102fb60048036038101906102f69190613840565b610d3d565b60405161031099989796959493929190613eea565b60405180910390f35b610333600480360381019061032e9190613fa8565b61131e565b005b61034f600480360381019061034a9190613840565b611d89565b60405161035c91906135db565b60405180910390f35b61037f600480360381019061037a9190614057565b611dac565b005b61039b60048036038101906103969190614097565b611dc2565b6040516103a891906135db565b60405180910390f35b6103cb60048036038101906103c691906141e1565b61248e565b6040516103d89190613e0a565b60405180910390f35b6103fb60048036038101906103f6919061420e565b612525565b6040516104089190613696565b60405180910390f35b61042b6004803603810190610426919061424e565b6125b9565b005b610447600480360381019061044291906142e5565b612661565b005b600080600083815260200190815260200160002060008473ffffffffffffffffffffffffffffffffffffffff1673ffffffffffffffffffffffffffffffffffffffff16815260200190815260200160002054905092915050565b60007fd9b67a26000000000000000000000000000000000000000000000000000000007bffffffffffffffffffffffffffffffffffffffffffffffffffffffff1916827bffffffffffffffffffffffffffffffffffffffffffffffffffffffff1916148061056e57507f0e89341c000000000000000000000000000000000000000000000000000000007bffffffffffffffffffffffffffffffffffffffffffffffffffffffff1916827bffffffffffffffffffffffffffffffffffffffffffffffffffffffff1916145b8061057e575061057d8261272e565b5b9050919050565b600073ffffffffffffffffffffffffffffffffffffffff166006826040516105ad919061437d565b908152602001604051809103902060000160009054906101000a900473ffffffffffffffffffffffffffffffffffffffff1673ffffffffffffffffffffffffffffffffffffffff1614610635576040517f08c379a000000000000000000000000000000000000000000000000000000000815260040161062c906143e0565b60405180910390fd5b60405180604001604052803373ffffffffffffffffffffffffffffffffffffffff168152602001600067ffffffffffffffff811115610677576106766136cc565b5b6040519080825280602002602001820160405280156106a55781602001602082028036833780820191505090505b508152506006826040516106b9919061437d565b908152602001604051809103902060008201518160000160006101000a81548173ffffffffffffffffffffffffffffffffffffffff021916908373ffffffffffffffffffffffffffffffffffffffff160217905550602082015181600101908051906020019061072a9291906133f0565b5090505050565b6060600280546107409061442f565b80601f016020809104026020016040519081016040528092919081815260200182805461076c9061442f565b80156107b95780601f1061078e576101008083540402835291602001916107b9565b820191906000526020600020905b81548152906001019060200180831161079c57829003601f168201915b50505050509050919050565b60006060600073ffffffffffffffffffffffffffffffffffffffff166006846040516107f1919061437d565b908152602001604051809103902060000160009054906101000a900473ffffffffffffffffffffffffffffffffffffffff1673ffffffffffffffffffffffffffffffffffffffff1603610879576040517f08c379a0000000000000000000000000000000000000000000000000000000008152600401610870906144ac565b60405180910390fd5b600060068460405161088b919061437d565b90815260200160405180910390206040518060400160405290816000820160009054906101000a900473ffffffffffffffffffffffffffffffffffffffff1673ffffffffffffffffffffffffffffffffffffffff1673ffffffffffffffffffffffffffffffffffffffff1681526020016001820180548060200260200160405190810160405280929190818152602001828054801561094957602002820191906000526020600020905b815481526020019060010190808311610935575b5050505050815250509050806000015181602001519250925050915091565b6008602052816000526040600020602052806000526040600020600091509150505481565b60006008600083815260200190815260200160002060008473ffffffffffffffffffffffffffffffffffffffff1673ffffffffffffffffffffffffffffffffffffffff16815260200190815260200160002054905092915050565b60006109f2612798565b90508073ffffffffffffffffffffffffffffffffffffffff168673ffffffffffffffffffffffffffffffffffffffff1614158015610a375750610a358682612525565b155b15610a7b5780866040517fe237d922000000000000000000000000000000000000000000000000000000008152600401610a729291906144cc565b60405180910390fd5b610a8886868686866127a0565b505050505050565b6000806060600080600960008781526020019081526020016000206040518060a0016040529081600082015481526020016001820160009054906101000a900473ffffffffffffffffffffffffffffffffffffffff1673ffffffffffffffffffffffffffffffffffffffff1673ffffffffffffffffffffffffffffffffffffffff1681526020016002820160009054906101000a900473ffffffffffffffffffffffffffffffffffffffff1673ffffffffffffffffffffffffffffffffffffffff1673ffffffffffffffffffffffffffffffffffffffff168152602001600382018054610b7c9061442f565b80601f0160208091040260200160405190810160405280929190818152602001828054610ba89061442f565b8015610bf55780601f10610bca57610100808354040283529160200191610bf5565b820191906000526020600020905b815481529060010190602001808311610bd857829003601f168201915b50505050508152602001600482015481525050905080602001518160400151826060015183608001519450945094509450509193509193565b60608151835114610c7a57815183516040517f5b059991000000000000000000000000000000000000000000000000000000008152600401610c719291906144f5565b60405180910390fd5b6000835167ffffffffffffffff811115610c9757610c966136cc565b5b604051908082528060200260200182016040528015610cc55781602001602082028036833780820191505090505b50905060005b8451811015610d3257610d02610cea828761289890919063ffffffff16565b610cfd83876128ac90919063ffffffff16565b610449565b828281518110610d1557610d1461451e565b5b60200260200101818152505080610d2b9061457c565b9050610ccb565b508091505092915050565b6060600060608060608060608060008073ffffffffffffffffffffffffffffffffffffffff16600560008c815260200190815260200160002060030160009054906101000a900473ffffffffffffffffffffffffffffffffffffffff1673ffffffffffffffffffffffffffffffffffffffff1603610df0576040517f08c379a0000000000000000000000000000000000000000000000000000000008152600401610de790614610565b60405180910390fd5b6000600560008c81526020019081526020016000206040518061016001604052908160008201548152602001600182018054610e2b9061442f565b80601f0160208091040260200160405190810160405280929190818152602001828054610e579061442f565b8015610ea45780601f10610e7957610100808354040283529160200191610ea4565b820191906000526020600020905b815481529060010190602001808311610e8757829003601f168201915b5050505050815260200160028201805480602002602001604051908101604052809291908181526020018280548015610f3257602002820191906000526020600020905b8160009054906101000a900473ffffffffffffffffffffffffffffffffffffffff1673ffffffffffffffffffffffffffffffffffffffff1681526020019060010190808311610ee8575b505050505081526020016003820160009054906101000a900473ffffffffffffffffffffffffffffffffffffffff1673ffffffffffffffffffffffffffffffffffffffff1673ffffffffffffffffffffffffffffffffffffffff168152602001600482018054610fa19061442f565b80601f0160208091040260200160405190810160405280929190818152602001828054610fcd9061442f565b801561101a5780601f10610fef5761010080835404028352916020019161101a565b820191906000526020600020905b815481529060010190602001808311610ffd57829003601f168201915b505050505081526020016005820180546110339061442f565b80601f016020809104026020016040519081016040528092919081815260200182805461105f9061442f565b80156110ac5780601f10611081576101008083540402835291602001916110ac565b820191906000526020600020905b81548152906001019060200180831161108f57829003601f168201915b50505050508152602001600682015481526020016007820180546110cf9061442f565b80601f01602080910402602001604051908101604052809291908181526020018280546110fb9061442f565b80156111485780601f1061111d57610100808354040283529160200191611148565b820191906000526020600020905b81548152906001019060200180831161112b57829003601f168201915b505050505081526020016008820180546111619061442f565b80601f016020809104026020016040519081016040528092919081815260200182805461118d9061442f565b80156111da5780601f106111af576101008083540402835291602001916111da565b820191906000526020600020905b8154815290600101906020018083116111bd57829003601f168201915b505050505081526020016009820180546111f39061442f565b80601f016020809104026020016040519081016040528092919081815260200182805461121f9061442f565b801561126c5780601f106112415761010080835404028352916020019161126c565b820191906000526020600020905b81548152906001019060200180831161124f57829003601f168201915b50505050508152602001600a82018054806020026020016040519081016040528092919081815260200182805480156112c457602002820191906000526020600020905b8154815260200190600101908083116112b0575b50505050508152505090508060400151816060015182610120015183608001518460a0015185610140015186602001518760e001518860c00151995099509950995099509950995099509950509193959799909294969850565b816008600086815260200190815260200160002060003373ffffffffffffffffffffffffffffffffffffffff1673ffffffffffffffffffffffffffffffffffffffff1681526020019081526020016000205410156113b1576040517f08c379a00000000000000000000000000000000000000000000000000000000081526004016113a89061467c565b60405180910390fd5b600073ffffffffffffffffffffffffffffffffffffffff168373ffffffffffffffffffffffffffffffffffffffff1603611420576040517f08c379a0000000000000000000000000000000000000000000000000000000008152600401611417906146e8565b60405180910390fd5b600073ffffffffffffffffffffffffffffffffffffffff166005600086815260200190815260200160002060030160009054906101000a900473ffffffffffffffffffffffffffffffffffffffff1673ffffffffffffffffffffffffffffffffffffffff16036114c5576040517f08c379a00000000000000000000000000000000000000000000000000000000081526004016114bc90614610565b60405180910390fd5b6114e133848685604051806020016040528060008152506128c0565b816008600086815260200190815260200160002060003373ffffffffffffffffffffffffffffffffffffffff1673ffffffffffffffffffffffffffffffffffffffff16815260200190815260200160002060008282546115419190614708565b92505081905550816008600086815260200190815260200160002060008573ffffffffffffffffffffffffffffffffffffffff1673ffffffffffffffffffffffffffffffffffffffff16815260200190815260200160002060008282546115a8919061473c565b925050819055506000805b6005600087815260200190815260200160002060020180549050811015611675578473ffffffffffffffffffffffffffffffffffffffff166005600088815260200190815260200160002060020182815481106116135761161261451e565b5b9060005260206000200160009054906101000a900473ffffffffffffffffffffffffffffffffffffffff1673ffffffffffffffffffffffffffffffffffffffff16036116625760019150611675565b808061166d9061457c565b9150506115b3565b5060001515811515036117605760056000868152602001908152602001600020600201849080600181540180825580915050600190039060005260206000200160009091909190916101000a81548173ffffffffffffffffffffffffffffffffffffffff021916908373ffffffffffffffffffffffffffffffffffffffff160217905550600760008573ffffffffffffffffffffffffffffffffffffffff1673ffffffffffffffffffffffffffffffffffffffff1681526020019081526020016000208590806001815401808255809150506001900390600052602060002001600090919091909150555b60006008600087815260200190815260200160002060003373ffffffffffffffffffffffffffffffffffffffff1673ffffffffffffffffffffffffffffffffffffffff1681526020019081526020016000205403611c0b5760008060006001600560008a8152602001908152602001600020600201805490506117e39190614708565b67ffffffffffffffff8111156117fc576117fb6136cc565b5b60405190808252806020026020018201604052801561182a5781602001602082028036833780820191505090505b509050600092505b600560008981526020019081526020016000206002018054905083101561199a573373ffffffffffffffffffffffffffffffffffffffff16600560008a815260200190815260200160002060020184815481106118925761189161451e565b5b9060005260206000200160009054906101000a900473ffffffffffffffffffffffffffffffffffffffff1673ffffffffffffffffffffffffffffffffffffffff161461198757600560008981526020019081526020016000206002018381548110611900576118ff61451e565b5b9060005260206000200160009054906101000a900473ffffffffffffffffffffffffffffffffffffffff1681838151811061193e5761193d61451e565b5b602002602001019073ffffffffffffffffffffffffffffffffffffffff16908173ffffffffffffffffffffffffffffffffffffffff168152505081806119839061457c565b9250505b82806119929061457c565b935050611832565b80600560008a815260200190815260200160002060020190805190602001906119c492919061343d565b5060006001600760003373ffffffffffffffffffffffffffffffffffffffff1673ffffffffffffffffffffffffffffffffffffffff16815260200190815260200160002080549050611a169190614708565b67ffffffffffffffff811115611a2f57611a2e6136cc565b5b604051908082528060200260200182016040528015611a5d5781602001602082028036833780820191505090505b50905060009250600093505b600760003373ffffffffffffffffffffffffffffffffffffffff1673ffffffffffffffffffffffffffffffffffffffff16815260200190815260200160002080549050841015611bb25788600760003373ffffffffffffffffffffffffffffffffffffffff1673ffffffffffffffffffffffffffffffffffffffff1681526020019081526020016000208581548110611b0557611b0461451e565b5b906000526020600020015414611b9f57600760003373ffffffffffffffffffffffffffffffffffffffff1673ffffffffffffffffffffffffffffffffffffffff1681526020019081526020016000208481548110611b6657611b6561451e565b5b9060005260206000200154818481518110611b8457611b8361451e565b5b6020026020010181815250508280611b9b9061457c565b9350505b8380611baa9061457c565b945050611a69565b80600760003373ffffffffffffffffffffffffffffffffffffffff1673ffffffffffffffffffffffffffffffffffffffff1681526020019081526020016000209080519060200190611c059291906133f0565b50505050505b6000611c1760046129cb565b90506040518060a001604052808281526020013373ffffffffffffffffffffffffffffffffffffffff1681526020018673ffffffffffffffffffffffffffffffffffffffff16815260200184815260200185815250600960008381526020019081526020016000206000820151816000015560208201518160010160006101000a81548173ffffffffffffffffffffffffffffffffffffffff021916908373ffffffffffffffffffffffffffffffffffffffff16021790555060408201518160020160006101000a81548173ffffffffffffffffffffffffffffffffffffffff021916908373ffffffffffffffffffffffffffffffffffffffff1602179055506060820151816003019081611d2c919061491c565b506080820151816004015590505060056000878152602001908152602001600020600a01819080600181540180825580915050600190039060005260206000200160009091909190915055611d8160046129d9565b505050505050565b600060056000838152602001908152602001600020600201805490509050919050565b611dbe611db7612798565b83836129ef565b5050565b600080611dcf60046129cb565b90506000611ddd60036129cb565b9050600073ffffffffffffffffffffffffffffffffffffffff16600686604051611e07919061437d565b908152602001604051809103902060000160009054906101000a900473ffffffffffffffffffffffffffffffffffffffff1673ffffffffffffffffffffffffffffffffffffffff1603611e8f576040517f08c379a0000000000000000000000000000000000000000000000000000000008152600401611e86906144ac565b60405180910390fd5b3373ffffffffffffffffffffffffffffffffffffffff16600686604051611eb6919061437d565b908152602001604051809103902060000160009054906101000a900473ffffffffffffffffffffffffffffffffffffffff1673ffffffffffffffffffffffffffffffffffffffff1614611f3e576040517f08c379a0000000000000000000000000000000000000000000000000000000008152600401611f3590614a3a565b60405180910390fd5b6040518060a00160405280838152602001600073ffffffffffffffffffffffffffffffffffffffff1681526020013373ffffffffffffffffffffffffffffffffffffffff16815260200185815260200187815250600960008481526020019081526020016000206000820151816000015560208201518160010160006101000a81548173ffffffffffffffffffffffffffffffffffffffff021916908373ffffffffffffffffffffffffffffffffffffffff16021790555060408201518160020160006101000a81548173ffffffffffffffffffffffffffffffffffffffff021916908373ffffffffffffffffffffffffffffffffffffffff1602179055506060820151816003019081612052919061491c565b50608082015181600401559050506040518061016001604052808281526020018b8152602001600067ffffffffffffffff811115612093576120926136cc565b5b6040519080825280602002602001820160405280156120c15781602001602082028036833780820191505090505b5081526020013373ffffffffffffffffffffffffffffffffffffffff1681526020018a8152602001898152602001878152602001858152602001888152602001868152602001600067ffffffffffffffff811115612122576121216136cc565b5b6040519080825280602002602001820160405280156121505781602001602082028036833780820191505090505b5081525060056000838152602001908152602001600020600082015181600001556020820151816001019081612186919061491c565b5060408201518160020190805190602001906121a392919061343d565b5060608201518160030160006101000a81548173ffffffffffffffffffffffffffffffffffffffff021916908373ffffffffffffffffffffffffffffffffffffffff1602179055506080820151816004019081612200919061491c565b5060a0820151816005019081612216919061491c565b5060c0820151816006015560e0820151816007019081612236919061491c565b5061010082015181600801908161224d919061491c565b50610120820151816009019081612264919061491c565b5061014082015181600a0190805190602001906122829291906133f0565b509050506122a133828860405180602001604052806000815250612b5f565b6006856040516122b1919061437d565b9081526020016040518091039020600101819080600181540180825580915050600190039060005260206000200160009091909190915055600760003373ffffffffffffffffffffffffffffffffffffffff1673ffffffffffffffffffffffffffffffffffffffff168152602001908152602001600020819080600181540180825580915050600190039060005260206000200160009091909190915055856008600083815260200190815260200160002060003373ffffffffffffffffffffffffffffffffffffffff1673ffffffffffffffffffffffffffffffffffffffff16815260200190815260200160002060008282546123af919061473c565b9250508190555060056000828152602001908152602001600020600201339080600181540180825580915050600190039060005260206000200160009091909190916101000a81548173ffffffffffffffffffffffffffffffffffffffff021916908373ffffffffffffffffffffffffffffffffffffffff16021790555060056000828152602001908152602001600020600a0182908060018154018082558091505060019003906000526020600020016000909190919091505561247460046129d9565b61247e60036129d9565b8092505050979650505050505050565b6060600760008373ffffffffffffffffffffffffffffffffffffffff1673ffffffffffffffffffffffffffffffffffffffff16815260200190815260200160002080548060200260200160405190810160405280929190818152602001828054801561251957602002820191906000526020600020905b815481526020019060010190808311612505575b50505050509050919050565b6000600160008473ffffffffffffffffffffffffffffffffffffffff1673ffffffffffffffffffffffffffffffffffffffff16815260200190815260200160002060008373ffffffffffffffffffffffffffffffffffffffff1673ffffffffffffffffffffffffffffffffffffffff16815260200190815260200160002060009054906101000a900460ff16905092915050565b60006125c3612798565b90508073ffffffffffffffffffffffffffffffffffffffff168673ffffffffffffffffffffffffffffffffffffffff161415801561260857506126068682612525565b155b1561264c5780866040517fe237d9220000000000000000000000000000000000000000000000000000000081526004016126439291906144cc565b60405180910390fd5b61265986868686866128c0565b505050505050565b600073ffffffffffffffffffffffffffffffffffffffff166005600084815260200190815260200160002060030160009054906101000a900473ffffffffffffffffffffffffffffffffffffffff1673ffffffffffffffffffffffffffffffffffffffff1603612706576040517f08c379a00000000000000000000000000000000000000000000000000000000081526004016126fd90614aa6565b60405180910390fd5b80600560008481526020019081526020016000206001019081612729919061491c565b505050565b60007f01ffc9a7000000000000000000000000000000000000000000000000000000007bffffffffffffffffffffffffffffffffffffffffffffffffffffffff1916827bffffffffffffffffffffffffffffffffffffffffffffffffffffffff1916149050919050565b600033905090565b600073ffffffffffffffffffffffffffffffffffffffff168473ffffffffffffffffffffffffffffffffffffffff16036128125760006040517f57f447ce0000000000000000000000000000000000000000000000000000000081526004016128099190614ac6565b60405180910390fd5b600073ffffffffffffffffffffffffffffffffffffffff168573ffffffffffffffffffffffffffffffffffffffff16036128845760006040517f01a8351400000000000000000000000000000000000000000000000000000000815260040161287b9190614ac6565b60405180910390fd5b6128918585858585612bf8565b5050505050565b600060208202602084010151905092915050565b600060208202602084010151905092915050565b600073ffffffffffffffffffffffffffffffffffffffff168473ffffffffffffffffffffffffffffffffffffffff16036129325760006040517f57f447ce0000000000000000000000000000000000000000000000000000000081526004016129299190614ac6565b60405180910390fd5b600073ffffffffffffffffffffffffffffffffffffffff168573ffffffffffffffffffffffffffffffffffffffff16036129a45760006040517f01a8351400000000000000000000000000000000000000000000000000000000815260040161299b9190614ac6565b60405180910390fd5b6000806129b18585612caa565b915091506129c28787848487612bf8565b50505050505050565b600081600001549050919050565b6001816000016000828254019250508190555050565b600073ffffffffffffffffffffffffffffffffffffffff168273ffffffffffffffffffffffffffffffffffffffff1603612a615760006040517fced3e100000000000000000000000000000000000000000000000000000000008152600401612a589190614ac6565b60405180910390fd5b80600160008573ffffffffffffffffffffffffffffffffffffffff1673ffffffffffffffffffffffffffffffffffffffff16815260200190815260200160002060008473ffffffffffffffffffffffffffffffffffffffff1673ffffffffffffffffffffffffffffffffffffffff16815260200190815260200160002060006101000a81548160ff0219169083151502179055508173ffffffffffffffffffffffffffffffffffffffff168373ffffffffffffffffffffffffffffffffffffffff167f17307eab39ab6107e8899845ad3d59bd9653f200f220920489ca2b5937696c3183604051612b529190613696565b60405180910390a3505050565b600073ffffffffffffffffffffffffffffffffffffffff168473ffffffffffffffffffffffffffffffffffffffff1603612bd15760006040517f57f447ce000000000000000000000000000000000000000000000000000000008152600401612bc89190614ac6565b60405180910390fd5b600080612bde8585612caa565b91509150612bf0600087848487612bf8565b505050505050565b612c0485858585612cda565b600073ffffffffffffffffffffffffffffffffffffffff168473ffffffffffffffffffffffffffffffffffffffff1614612ca3576000612c42612798565b90506001845103612c92576000612c636000866128ac90919063ffffffff16565b90506000612c7b6000866128ac90919063ffffffff16565b9050612c8b838989858589613088565b5050612ca1565b612ca081878787878761323c565b5b505b5050505050565b60608060405191506001825283602083015260408201905060018152826020820152604081016040529250929050565b8051825114612d2457815181516040517f5b059991000000000000000000000000000000000000000000000000000000008152600401612d1b9291906144f5565b60405180910390fd5b6000612d2e612798565b905060005b8351811015612f43576000612d5182866128ac90919063ffffffff16565b90506000612d6883866128ac90919063ffffffff16565b9050600073ffffffffffffffffffffffffffffffffffffffff168873ffffffffffffffffffffffffffffffffffffffff1614612e9557600080600084815260200190815260200160002060008a73ffffffffffffffffffffffffffffffffffffffff1673ffffffffffffffffffffffffffffffffffffffff16815260200190815260200160002054905081811015612e3d57888183856040517f03dee4c5000000000000000000000000000000000000000000000000000000008152600401612e349493929190614ae1565b60405180910390fd5b81810360008085815260200190815260200160002060008b73ffffffffffffffffffffffffffffffffffffffff1673ffffffffffffffffffffffffffffffffffffffff16815260200190815260200160002081905550505b600073ffffffffffffffffffffffffffffffffffffffff168773ffffffffffffffffffffffffffffffffffffffff1614612f30578060008084815260200190815260200160002060008973ffffffffffffffffffffffffffffffffffffffff1673ffffffffffffffffffffffffffffffffffffffff1681526020019081526020016000206000828254612f28919061473c565b925050819055505b505080612f3c9061457c565b9050612d33565b506001835103613002576000612f636000856128ac90919063ffffffff16565b90506000612f7b6000856128ac90919063ffffffff16565b90508573ffffffffffffffffffffffffffffffffffffffff168773ffffffffffffffffffffffffffffffffffffffff168473ffffffffffffffffffffffffffffffffffffffff167fc3d58168c5ae7397731d063d5bbf3d657854427343f4c083240f7aacaa2d0f628585604051612ff39291906144f5565b60405180910390a45050613081565b8373ffffffffffffffffffffffffffffffffffffffff168573ffffffffffffffffffffffffffffffffffffffff168273ffffffffffffffffffffffffffffffffffffffff167f4a39dc06d4c0dbc64b70af90fd698a233a518aa5d07e595d983b8c0526c8f7fb8686604051613078929190614b26565b60405180910390a45b5050505050565b60008473ffffffffffffffffffffffffffffffffffffffff163b1115613234578373ffffffffffffffffffffffffffffffffffffffff1663f23a6e6187878686866040518663ffffffff1660e01b81526004016130e9959493929190614bb2565b6020604051808303816000875af192505050801561312557506040513d601f19601f820116820180604052508101906131229190614c21565b60015b6131a9573d8060008114613155576040519150601f19603f3d011682016040523d82523d6000602084013e61315a565b606091505b5060008151036131a157846040517f57f447ce0000000000000000000000000000000000000000000000000000000081526004016131989190614ac6565b60405180910390fd5b805181602001fd5b63f23a6e6160e01b7bffffffffffffffffffffffffffffffffffffffffffffffffffffffff1916817bffffffffffffffffffffffffffffffffffffffffffffffffffffffff19161461323257846040517f57f447ce0000000000000000000000000000000000000000000000000000000081526004016132299190614ac6565b60405180910390fd5b505b505050505050565b60008473ffffffffffffffffffffffffffffffffffffffff163b11156133e8578373ffffffffffffffffffffffffffffffffffffffff1663bc197c8187878686866040518663ffffffff1660e01b815260040161329d959493929190614c4e565b6020604051808303816000875af19250505080156132d957506040513d601f19601f820116820180604052508101906132d69190614c21565b60015b61335d573d8060008114613309576040519150601f19603f3d011682016040523d82523d6000602084013e61330e565b606091505b50600081510361335557846040517f57f447ce00000000000000000000000000000000000000000000000000000000815260040161334c9190614ac6565b60405180910390fd5b805181602001fd5b63bc197c8160e01b7bffffffffffffffffffffffffffffffffffffffffffffffffffffffff1916817bffffffffffffffffffffffffffffffffffffffffffffffffffffffff1916146133e657846040517f57f447ce0000000000000000000000000000000000000000000000000000000081526004016133dd9190614ac6565b60405180910390fd5b505b505050505050565b82805482825590600052602060002090810192821561342c579160200282015b8281111561342b578251825591602001919060010190613410565b5b50905061343991906134c7565b5090565b8280548282559060005260206000209081019282156134b6579160200282015b828111156134b55782518260006101000a81548173ffffffffffffffffffffffffffffffffffffffff021916908373ffffffffffffffffffffffffffffffffffffffff1602179055509160200191906001019061345d565b5b5090506134c391906134c7565b5090565b5b808211156134e05760008160009055506001016134c8565b5090565b6000604051905090565b600080fd5b600080fd5b600073ffffffffffffffffffffffffffffffffffffffff82169050919050565b6000613523826134f8565b9050919050565b61353381613518565b811461353e57600080fd5b50565b6000813590506135508161352a565b92915050565b6000819050919050565b61356981613556565b811461357457600080fd5b50565b60008135905061358681613560565b92915050565b600080604083850312156135a3576135a26134ee565b5b60006135b185828601613541565b92505060206135c285828601613577565b9150509250929050565b6135d581613556565b82525050565b60006020820190506135f060008301846135cc565b92915050565b60007fffffffff0000000000000000000000000000000000000000000000000000000082169050919050565b61362b816135f6565b811461363657600080fd5b50565b60008135905061364881613622565b92915050565b600060208284031215613664576136636134ee565b5b600061367284828501613639565b91505092915050565b60008115159050919050565b6136908161367b565b82525050565b60006020820190506136ab6000830184613687565b92915050565b600080fd5b600080fd5b6000601f19601f8301169050919050565b7f4e487b7100000000000000000000000000000000000000000000000000000000600052604160045260246000fd5b613704826136bb565b810181811067ffffffffffffffff82111715613723576137226136cc565b5b80604052505050565b60006137366134e4565b905061374282826136fb565b919050565b600067ffffffffffffffff821115613762576137616136cc565b5b61376b826136bb565b9050602081019050919050565b82818337600083830152505050565b600061379a61379584613747565b61372c565b9050828152602081018484840111156137b6576137b56136b6565b5b6137c1848285613778565b509392505050565b600082601f8301126137de576137dd6136b1565b5b81356137ee848260208601613787565b91505092915050565b60006020828403121561380d5761380c6134ee565b5b600082013567ffffffffffffffff81111561382b5761382a6134f3565b5b613837848285016137c9565b91505092915050565b600060208284031215613856576138556134ee565b5b600061386484828501613577565b91505092915050565b600081519050919050565b600082825260208201905092915050565b60005b838110156138a757808201518184015260208101905061388c565b60008484015250505050565b60006138be8261386d565b6138c88185613878565b93506138d8818560208601613889565b6138e1816136bb565b840191505092915050565b6000602082019050818103600083015261390681846138b3565b905092915050565b61391781613518565b82525050565b600081519050919050565b600082825260208201905092915050565b6000819050602082019050919050565b61395281613556565b82525050565b60006139648383613949565b60208301905092915050565b6000602082019050919050565b60006139888261391d565b6139928185613928565b935061399d83613939565b8060005b838110156139ce5781516139b58882613958565b97506139c083613970565b9250506001810190506139a1565b5085935050505092915050565b60006040820190506139f0600083018561390e565b8181036020830152613a02818461397d565b90509392505050565b60008060408385031215613a2257613a216134ee565b5b6000613a3085828601613577565b9250506020613a4185828601613541565b9150509250929050565b600067ffffffffffffffff821115613a6657613a656136cc565b5b602082029050602081019050919050565b600080fd5b6000613a8f613a8a84613a4b565b61372c565b90508083825260208201905060208402830185811115613ab257613ab1613a77565b5b835b81811015613adb5780613ac78882613577565b845260208401935050602081019050613ab4565b5050509392505050565b600082601f830112613afa57613af96136b1565b5b8135613b0a848260208601613a7c565b91505092915050565b600067ffffffffffffffff821115613b2e57613b2d6136cc565b5b613b37826136bb565b9050602081019050919050565b6000613b57613b5284613b13565b61372c565b905082815260208101848484011115613b7357613b726136b6565b5b613b7e848285613778565b509392505050565b600082601f830112613b9b57613b9a6136b1565b5b8135613bab848260208601613b44565b91505092915050565b600080600080600060a08688031215613bd057613bcf6134ee565b5b6000613bde88828901613541565b9550506020613bef88828901613541565b945050604086013567ffffffffffffffff811115613c1057613c0f6134f3565b5b613c1c88828901613ae5565b935050606086013567ffffffffffffffff811115613c3d57613c3c6134f3565b5b613c4988828901613ae5565b925050608086013567ffffffffffffffff811115613c6a57613c696134f3565b5b613c7688828901613b86565b9150509295509295909350565b6000608082019050613c98600083018761390e565b613ca5602083018661390e565b8181036040830152613cb781856138b3565b9050613cc660608301846135cc565b95945050505050565b600067ffffffffffffffff821115613cea57613ce96136cc565b5b602082029050602081019050919050565b6000613d0e613d0984613ccf565b61372c565b90508083825260208201905060208402830185811115613d3157613d30613a77565b5b835b81811015613d5a5780613d468882613541565b845260208401935050602081019050613d33565b5050509392505050565b600082601f830112613d7957613d786136b1565b5b8135613d89848260208601613cfb565b91505092915050565b60008060408385031215613da957613da86134ee565b5b600083013567ffffffffffffffff811115613dc757613dc66134f3565b5b613dd385828601613d64565b925050602083013567ffffffffffffffff811115613df457613df36134f3565b5b613e0085828601613ae5565b9150509250929050565b60006020820190508181036000830152613e24818461397d565b905092915050565b600081519050919050565b600082825260208201905092915050565b6000819050602082019050919050565b613e6181613518565b82525050565b6000613e738383613e58565b60208301905092915050565b6000602082019050919050565b6000613e9782613e2c565b613ea18185613e37565b9350613eac83613e48565b8060005b83811015613edd578151613ec48882613e67565b9750613ecf83613e7f565b925050600181019050613eb0565b5085935050505092915050565b6000610120820190508181036000830152613f05818c613e8c565b9050613f14602083018b61390e565b8181036040830152613f26818a6138b3565b90508181036060830152613f3a81896138b3565b90508181036080830152613f4e81886138b3565b905081810360a0830152613f62818761397d565b905081810360c0830152613f7681866138b3565b905081810360e0830152613f8a81856138b3565b9050613f9a6101008301846135cc565b9a9950505050505050505050565b60008060008060808587031215613fc257613fc16134ee565b5b6000613fd087828801613577565b9450506020613fe187828801613541565b9350506040613ff287828801613577565b925050606085013567ffffffffffffffff811115614013576140126134f3565b5b61401f878288016137c9565b91505092959194509250565b6140348161367b565b811461403f57600080fd5b50565b6000813590506140518161402b565b92915050565b6000806040838503121561406e5761406d6134ee565b5b600061407c85828601613541565b925050602061408d85828601614042565b9150509250929050565b600080600080600080600060e0888a0312156140b6576140b56134ee565b5b600088013567ffffffffffffffff8111156140d4576140d36134f3565b5b6140e08a828b016137c9565b975050602088013567ffffffffffffffff811115614101576141006134f3565b5b61410d8a828b016137c9565b965050604088013567ffffffffffffffff81111561412e5761412d6134f3565b5b61413a8a828b016137c9565b955050606088013567ffffffffffffffff81111561415b5761415a6134f3565b5b6141678a828b016137c9565b94505060806141788a828b01613577565b93505060a088013567ffffffffffffffff811115614199576141986134f3565b5b6141a58a828b016137c9565b92505060c088013567ffffffffffffffff8111156141c6576141c56134f3565b5b6141d28a828b016137c9565b91505092959891949750929550565b6000602082840312156141f7576141f66134ee565b5b600061420584828501613541565b91505092915050565b60008060408385031215614225576142246134ee565b5b600061423385828601613541565b925050602061424485828601613541565b9150509250929050565b600080600080600060a0868803121561426a576142696134ee565b5b600061427888828901613541565b955050602061428988828901613541565b945050604061429a88828901613577565b93505060606142ab88828901613577565b925050608086013567ffffffffffffffff8111156142cc576142cb6134f3565b5b6142d888828901613b86565b9150509295509295909350565b600080604083850312156142fc576142fb6134ee565b5b600061430a85828601613577565b925050602083013567ffffffffffffffff81111561432b5761432a6134f3565b5b614337858286016137c9565b9150509250929050565b600081905092915050565b60006143578261386d565b6143618185614341565b9350614371818560208601613889565b80840191505092915050565b6000614389828461434c565b915081905092915050565b7f436f6c6c656374696f6e20616c72656164792065786973747300000000000000600082015250565b60006143ca601983613878565b91506143d582614394565b602082019050919050565b600060208201905081810360008301526143f9816143bd565b9050919050565b7f4e487b7100000000000000000000000000000000000000000000000000000000600052602260045260246000fd5b6000600282049050600182168061444757607f821691505b60208210810361445a57614459614400565b5b50919050565b7f436f6c6c656374696f6e20646f65736e27742065786973740000000000000000600082015250565b6000614496601883613878565b91506144a182614460565b602082019050919050565b600060208201905081810360008301526144c581614489565b9050919050565b60006040820190506144e1600083018561390e565b6144ee602083018461390e565b9392505050565b600060408201905061450a60008301856135cc565b61451760208301846135cc565b9392505050565b7f4e487b7100000000000000000000000000000000000000000000000000000000600052603260045260246000fd5b7f4e487b7100000000000000000000000000000000000000000000000000000000600052601160045260246000fd5b600061458782613556565b91507fffffffffffffffffffffffffffffffffffffffffffffffffffffffffffffffff82036145b9576145b861454d565b5b600182019050919050565b7f4e465420646f65736e2774206578697374000000000000000000000000000000600082015250565b60006145fa601183613878565b9150614605826145c4565b602082019050919050565b60006020820190508181036000830152614629816145ed565b9050919050565b7f496e73756666696369656e74204e46547320746f207472616e73666572000000600082015250565b6000614666601d83613878565b915061467182614630565b602082019050919050565b6000602082019050818103600083015261469581614659565b9050919050565b7f496e76616c696420726563697069656e74206164647265737300000000000000600082015250565b60006146d2601983613878565b91506146dd8261469c565b602082019050919050565b60006020820190508181036000830152614701816146c5565b9050919050565b600061471382613556565b915061471e83613556565b92508282039050818111156147365761473561454d565b5b92915050565b600061474782613556565b915061475283613556565b925082820190508082111561476a5761476961454d565b5b92915050565b60008190508160005260206000209050919050565b60006020601f8301049050919050565b600082821b905092915050565b6000600883026147d27fffffffffffffffffffffffffffffffffffffffffffffffffffffffffffffffff82614795565b6147dc8683614795565b95508019841693508086168417925050509392505050565b6000819050919050565b600061481961481461480f84613556565b6147f4565b613556565b9050919050565b6000819050919050565b614833836147fe565b61484761483f82614820565b8484546147a2565b825550505050565b600090565b61485c61484f565b61486781848461482a565b505050565b5b8181101561488b57614880600082614854565b60018101905061486d565b5050565b601f8211156148d0576148a181614770565b6148aa84614785565b810160208510156148b9578190505b6148cd6148c585614785565b83018261486c565b50505b505050565b600082821c905092915050565b60006148f3600019846008026148d5565b1980831691505092915050565b600061490c83836148e2565b9150826002028217905092915050565b6149258261386d565b67ffffffffffffffff81111561493e5761493d6136cc565b5b614948825461442f565b61495382828561488f565b600060209050601f8311600181146149865760008415614974578287015190505b61497e8582614900565b8655506149e6565b601f19841661499486614770565b60005b828110156149bc57848901518255600182019150602085019450602081019050614997565b868310156149d957848901516149d5601f8916826148e2565b8355505b6001600288020188555050505b505050505050565b7f4e6f7420746865206f776e6572206f662074686520636f6c6c656374696f6e00600082015250565b6000614a24601f83613878565b9150614a2f826149ee565b602082019050919050565b60006020820190508181036000830152614a5381614a17565b9050919050565b7f4e46547320646f65736e27742065786973740000000000000000000000000000600082015250565b6000614a90601283613878565b9150614a9b82614a5a565b602082019050919050565b60006020820190508181036000830152614abf81614a83565b9050919050565b6000602082019050614adb600083018461390e565b92915050565b6000608082019050614af6600083018761390e565b614b0360208301866135cc565b614b1060408301856135cc565b614b1d60608301846135cc565b95945050505050565b60006040820190508181036000830152614b40818561397d565b90508181036020830152614b54818461397d565b90509392505050565b600081519050919050565b600082825260208201905092915050565b6000614b8482614b5d565b614b8e8185614b68565b9350614b9e818560208601613889565b614ba7816136bb565b840191505092915050565b600060a082019050614bc7600083018861390e565b614bd4602083018761390e565b614be160408301866135cc565b614bee60608301856135cc565b8181036080830152614c008184614b79565b90509695505050505050565b600081519050614c1b81613622565b92915050565b600060208284031215614c3757614c366134ee565b5b6000614c4584828501614c0c565b91505092915050565b600060a082019050614c63600083018861390e565b614c70602083018761390e565b8181036040830152614c82818661397d565b90508181036060830152614c96818561397d565b90508181036080830152614caa8184614b79565b9050969550505050505056fea2646970667358221220c715c5dcfc00191abc49cef7a17d885364e86ed6403bd6a3f5036c6c3e59536e64736f6c6343000814003368747470733a2f2f676174657761792e70696e6174612e636c6f75642f697066732f7b69647d",
  "immutableReferences": {},
  "source": "// SPDX-License-Identifier: MIT\r\n// pragma solidity ^0.8.20;\r\npragma solidity ^0.8.20;\r\n\r\nimport \"@openzeppelin/contracts/token/ERC1155/ERC1155.sol\";\r\nimport \"@openzeppelin/contracts/utils/Counters.sol\";\r\n\r\ncontract NFThubPlatformContract is ERC1155 {\r\n    using Counters for Counters.Counter;\r\n    Counters.Counter private tokenIdCounter;     // Counter for creating unique token ids\r\n    Counters.Counter private transactionIdCounter; // Counter for creating unique transaction ids\r\n\r\n    // Schema for an NFT\r\n    struct NFT{\r\n        uint256 id;\r\n        string cid;\r\n        address[] owners;          // Array- wallet id of all the owners of the NFT\r\n        address creator;\r\n        string name;\r\n        string description;\r\n        uint256 amount;\r\n        string dateCreated;\r\n        string filetype;\r\n        string collectionId;\r\n        uint256[] transactions;\r\n    }\r\n\r\n    // Schema for a Collection\r\n    struct Collection{\r\n        address owner;\r\n        uint256[] nfts;        // Token id- all the NFTs of the collection\r\n    }\r\n\r\n    // Schema for a transaction\r\n    struct Transaction{\r\n        uint256 transactionId;\r\n        address sender;\r\n        address receiver;\r\n        string date;\r\n        uint256 supply;\r\n    }\r\n\r\n    mapping(uint256 => NFT) private nfts;                               // To store all NFTs\r\n    mapping(string => Collection) private collections;                 // To store all Collections\r\n    mapping(address => uint256[]) private userCollections;              // NFTs owned by a user\r\n    mapping(uint256 => mapping(address => uint256)) public balances;    // Copies of an NFT owned by a user\r\n    mapping(uint256 => Transaction) private transactions;               // Transaction of NFTs\r\n\r\n    constructor() ERC1155(\"https://gateway.pinata.cloud/ipfs/{id}\"){\r\n    }\r\n\r\n    // Function to create a Collection\r\n    function createCollection(string memory _collectionId) external {\r\n        require(collections[_collectionId].owner == address(0), \"Collection already exists\");\r\n\r\n        collections[_collectionId] = Collection({\r\n            owner: msg.sender,\r\n            nfts: new uint256[](0)\r\n        });\r\n    }\r\n\r\n    // Function to mint an NFT\r\n    function createNFT(\r\n        string memory _cid,\r\n        string memory _name,\r\n        string memory _description,\r\n        string memory _filetype,\r\n        uint256 _amount,\r\n        string memory _collectionId,\r\n        string memory _dateCreated\r\n    )   external \r\n        returns (uint256 tokenId)\r\n    {\r\n        uint256 _transactionId = transactionIdCounter.current();\r\n        uint256 _id = tokenIdCounter.current();\r\n        require(collections[_collectionId].owner != address(0), \"Collection doesn't exist\");\r\n        require(collections[_collectionId].owner == msg.sender, \"Not the owner of the collection\");\r\n\r\n        transactions[_transactionId] = Transaction({\r\n            transactionId: _transactionId,\r\n            sender: address(0),\r\n            receiver: msg.sender,\r\n            date: _dateCreated,\r\n            supply: _amount\r\n        });\r\n\r\n        nfts[_id] = NFT({\r\n            id: _id,\r\n            cid: _cid,\r\n            collectionId: _collectionId,\r\n            owners: new address[](0),\r\n            creator: msg.sender,\r\n            name: _name,\r\n            description: _description,\r\n            amount: _amount,\r\n            filetype: _filetype,\r\n            dateCreated: _dateCreated,\r\n            transactions: new uint256[](0)\r\n        });\r\n        \r\n        _mint(msg.sender, _id, _amount, \"\");\r\n        collections[_collectionId].nfts.push(_id);            // Adding the token id in the Collection\r\n        userCollections[msg.sender].push(_id);                // Adding the NFT in the ownership of the user\r\n        balances[_id][msg.sender] += _amount;                 // Increasing the supply of the NFT for creator\r\n        nfts[_id].owners.push(msg.sender);                    // Adding wallet id in the owners array of NFT\r\n        nfts[_id].transactions.push(_transactionId);          // Adding the transaction in the array of transactions of the NFT\r\n        transactionIdCounter.increment();\r\n        tokenIdCounter.increment();\r\n\r\n        return _id;\r\n    }\r\n\r\n    // Function to transfer an NFT\r\n    function transferNFT(uint256 _id, address _to, uint256 _amount, string memory _date) external {\r\n        require(balances[_id][msg.sender] >= _amount, \"Insufficient NFTs to transfer\");\r\n        require(_to != address(0), \"Invalid recipient address\");\r\n        require(nfts[_id].creator != address(0), \"NFT doesn't exist\");\r\n\r\n        _safeTransferFrom(msg.sender, _to, _id, _amount, \"\");\r\n        \r\n        balances[_id][msg.sender] -= _amount;                 // Decreasing supply of the sender\r\n        balances[_id][_to] += _amount;                        // Increasing supply of the receiver\r\n        \r\n        bool isAdded = false;\r\n        for(uint256 i=0; i<nfts[_id].owners.length; i++){    \r\n            if(nfts[_id].owners[i] == _to){             // Checking if user is already added as an owner\r\n                isAdded = true;\r\n                break;\r\n            }\r\n        }\r\n\r\n        if(isAdded == false){\r\n            nfts[_id].owners.push(_to);                  // Adding wallet id of receiver in the owners array of NFT\r\n            userCollections[_to].push(_id);                       // Adding the NFT in the ownership of the receiver\r\n        }\r\n\r\n        if(balances[_id][msg.sender] == 0){                 // Works if supply of sender is 0 after transaction\r\n            uint256 i = 0;\r\n            uint256 indexCount=0;\r\n\r\n            address[] memory newOwners = new address[](nfts[_id].owners.length-1);\r\n            for(i=0; i<nfts[_id].owners.length; i++){\r\n                if(nfts[_id].owners[i] != msg.sender){\r\n                    newOwners[indexCount]=nfts[_id].owners[i];\r\n                    indexCount++;\r\n                }\r\n            }\r\n            nfts[_id].owners = newOwners;                  // Removing sender's id from owners array of NFT\r\n\r\n            uint256[] memory newCollection=new uint256[](userCollections[msg.sender].length-1);\r\n            indexCount=0;\r\n\t\t    for (i = 0; i<userCollections[msg.sender].length; i++){\r\n           \t    if(userCollections[msg.sender][i] != _id){\r\n\t\t\t\t    newCollection[indexCount]=userCollections[msg.sender][i];\r\n\t\t\t\t    indexCount++;\r\n\t\t\t    }\r\n            }\r\n\t\t    userCollections[msg.sender]=newCollection;     // Removing NFT from the ownership of receiver\r\n        }\r\n\r\n        uint256 _transactionId = transactionIdCounter.current();\r\n        transactions[_transactionId] = Transaction({       // Creating a new transaction\r\n            transactionId: _transactionId,\r\n            sender: msg.sender,\r\n            receiver: _to,\r\n            date: _date,\r\n            supply: _amount\r\n        });\r\n\r\n        nfts[_id].transactions.push(_transactionId);  // Adding the transaction to the array of transactions for the nft\r\n        transactionIdCounter.increment();\r\n    }\r\n\r\n    // Function to get details of an NFT\r\n    function getNFT(uint256 _id)\r\n        external \r\n        view \r\n        returns (\r\n            address[] memory owners,\r\n            address creator,\r\n            string memory collectionId,\r\n            string memory name,\r\n            string memory description,\r\n            uint256[] memory transaction,\r\n            string memory cid,\r\n            string memory dateCreated,\r\n            uint256 amount\r\n        )\r\n    {\r\n        require(nfts[_id].creator != address(0), \"NFT doesn't exist\");\r\n\r\n        NFT memory nft = nfts[_id];\r\n        return (\r\n            nft.owners,\r\n            nft.creator,\r\n            nft.collectionId,\r\n            nft.name,\r\n            nft.description,\r\n            nft.transactions,\r\n            nft.cid,\r\n            nft.dateCreated,\r\n            nft.amount\r\n        );\r\n    }\r\n\r\n    // Function to get details of a Collection\r\n    function getCollection(string memory _collectionId)\r\n        external \r\n        view \r\n        returns (\r\n            address owner,\r\n            uint256[] memory nft\r\n        )\r\n    {\r\n        require(collections[_collectionId].owner != address(0), \"Collection doesn't exist\");\r\n        Collection memory collection = collections[_collectionId];\r\n\r\n        return (\r\n            collection.owner,\r\n            collection.nfts\r\n        );\r\n    }\r\n\r\n    //Function to get detail of a transaction\r\n    function getTransaction(uint256 _transactionId)\r\n        external \r\n        view \r\n        returns (\r\n            address sender,\r\n            address receiver,\r\n            string memory date,\r\n            uint256 supply\r\n        )\r\n    {\r\n        Transaction memory currentTransaction = transactions[_transactionId];\r\n        return(\r\n            currentTransaction.sender,\r\n            currentTransaction.receiver,\r\n            currentTransaction.date,\r\n            currentTransaction.supply\r\n        );\r\n    }\r\n\r\n    // Function to get supply of an NFT for a user\r\n    function getBalance(address _owner, uint256 _id)\r\n        external \r\n        view \r\n        returns (uint256)\r\n    {\r\n        return balances[_id][_owner];\r\n    }\r\n\r\n    // Function to get number of owners of an NFT\r\n    function getNumberOfOwners(uint256 _id)\r\n        external \r\n        view \r\n        returns (uint256)\r\n    {\r\n        return nfts[_id].owners.length;\r\n    }\r\n\r\n    // Function to get all the NFTs owned by a user\r\n    function getNFTsByOwner(address _owner)\r\n        external \r\n        view \r\n        returns(uint256[] memory)\r\n    {\r\n        return userCollections[_owner];\r\n    }\r\n\r\n    // Function to update CID of an NFT\r\n    function updateCID(uint _id, string memory _cid) external {\r\n        require(nfts[_id].creator != address(0), \"NFTs doesn't exist\");\r\n\r\n        nfts[_id].cid = _cid;\r\n    }\r\n}",
  "sourcePath": "C:\\Users\\Abhimanyu\\Documents\\ytnode\\truffle\\contracts\\NFThubPlatformContract.sol",
  "compiler": {
    "name": "solc",
    "version": "0.8.20+commit.a1b79de6.Emscripten.clang"
  },
  "schemaVersion": "3.4.16",
  "updatedAt": "2023-11-13T07:44:56.371Z",
  "networkType": "ethereum",
  "devdoc": {
    "errors": {
      "ERC1155InsufficientBalance(address,uint256,uint256,uint256)": [
        {
          "details": "Indicates an error related to the current `balance` of a `sender`. Used in transfers.",
          "params": {
            "balance": "Current balance for the interacting account.",
            "needed": "Minimum amount required to perform a transfer.",
            "sender": "Address whose tokens are being transferred.",
            "tokenId": "Identifier number of a token."
          }
        }
      ],
      "ERC1155InvalidApprover(address)": [
        {
          "details": "Indicates a failure with the `approver` of a token to be approved. Used in approvals.",
          "params": {
            "approver": "Address initiating an approval operation."
          }
        }
      ],
      "ERC1155InvalidArrayLength(uint256,uint256)": [
        {
          "details": "Indicates an array length mismatch between ids and values in a safeBatchTransferFrom operation. Used in batch transfers.",
          "params": {
            "idsLength": "Length of the array of token identifiers",
            "valuesLength": "Length of the array of token amounts"
          }
        }
      ],
      "ERC1155InvalidOperator(address)": [
        {
          "details": "Indicates a failure with the `operator` to be approved. Used in approvals.",
          "params": {
            "operator": "Address that may be allowed to operate on tokens without being their owner."
          }
        }
      ],
      "ERC1155InvalidReceiver(address)": [
        {
          "details": "Indicates a failure with the token `receiver`. Used in transfers.",
          "params": {
            "receiver": "Address to which tokens are being transferred."
          }
        }
      ],
      "ERC1155InvalidSender(address)": [
        {
          "details": "Indicates a failure with the token `sender`. Used in transfers.",
          "params": {
            "sender": "Address whose tokens are being transferred."
          }
        }
      ],
      "ERC1155MissingApprovalForAll(address,address)": [
        {
          "details": "Indicates a failure with the `operator`s approval. Used in transfers.",
          "params": {
            "operator": "Address that may be allowed to operate on tokens without being their owner.",
            "owner": "Address of the current owner of a token."
          }
        }
      ]
    },
    "events": {
      "ApprovalForAll(address,address,bool)": {
        "details": "Emitted when `account` grants or revokes permission to `operator` to transfer their tokens, according to `approved`."
      },
      "TransferBatch(address,address,address,uint256[],uint256[])": {
        "details": "Equivalent to multiple {TransferSingle} events, where `operator`, `from` and `to` are the same for all transfers."
      },
      "TransferSingle(address,address,address,uint256,uint256)": {
        "details": "Emitted when `value` amount of tokens of type `id` are transferred from `from` to `to` by `operator`."
      },
      "URI(string,uint256)": {
        "details": "Emitted when the URI for token type `id` changes to `value`, if it is a non-programmatic URI. If an {URI} event was emitted for `id`, the standard https://eips.ethereum.org/EIPS/eip-1155#metadata-extensions[guarantees] that `value` will equal the value returned by {IERC1155MetadataURI-uri}."
      }
    },
    "kind": "dev",
    "methods": {
      "balanceOf(address,uint256)": {
        "details": "See {IERC1155-balanceOf}."
      },
      "balanceOfBatch(address[],uint256[])": {
        "details": "See {IERC1155-balanceOfBatch}. Requirements: - `accounts` and `ids` must have the same length."
      },
      "isApprovedForAll(address,address)": {
        "details": "See {IERC1155-isApprovedForAll}."
      },
      "safeBatchTransferFrom(address,address,uint256[],uint256[],bytes)": {
        "details": "See {IERC1155-safeBatchTransferFrom}."
      },
      "safeTransferFrom(address,address,uint256,uint256,bytes)": {
        "details": "See {IERC1155-safeTransferFrom}."
      },
      "setApprovalForAll(address,bool)": {
        "details": "See {IERC1155-setApprovalForAll}."
      },
      "supportsInterface(bytes4)": {
        "details": "See {IERC165-supportsInterface}."
      },
      "uri(uint256)": {
        "details": "See {IERC1155MetadataURI-uri}. This implementation returns the same URI for *all* token types. It relies on the token type ID substitution mechanism https://eips.ethereum.org/EIPS/eip-1155#metadata[defined in the EIP]. Clients calling this function must replace the `\\{id\\}` substring with the actual token type ID."
      }
    },
    "version": 1
  },
  "userdoc": {
    "kind": "user",
    "methods": {},
    "version": 1
  }
}